:020000040800F2
:100000000000032065CD0208F1190108051A010856
:10001000191A01082D1A0108411A010800000000F0
:10002000000000000000000000000000551A010858
:10003000691A0108000000006D1A01087D1A010804
:10004000B1CD0208B1CD0208B1CD0208B1CD020890
:10005000E1BC0108B1CD0208EDDF000829E000088D
:1000600079E000089DE00008C1E0000839D70008E9
:10007000B1CD0208B1CD020849C20108B1CD0208D4
:1000800069DB0108C9C10108B1CD0208B1CD020880
:10009000B1CD0208B1CD0208B1CD020861DF000880
:1000A000B1CD0208B1CD0208B1CD0208B1CD020830
:1000B000D1AC0108B1CD0208B1CD0208B1CD020822
:1000C000B1CD0208B1CD0208B1CD0208B1CD020810
:1000D000B1CD0208B1CD0208B1CD0208B1CD020800
:1000E000BDDE000835DD0008B1CD0208B1CD020843
:1000F000B1CD0208B1CD0208B1CD020889D7000800
:10010000B1CD0208B1CD020849DC0008B1CD02082A
:10011000B1CD0208B1CD0208B1CD0208B1CD0208BF
:10012000C5A40108B1CD0208C9C20108B1CD0208B9
:10013000B1CD0208B1CD0208B1CD0208B1CD02089F
:10014000B1CD0208B1CD0208B1CD0208B1CD02088F
:10015000551F0108B1CD020871C10108B1CD0208D7
:10016000B1CD0208B1CD0208B1CD0208B1CD02086F
:10017000B1CD0208B1CD0208B1CD0208B1CD02085F
:08018000B1CD0208B1CD020867
:1080000010B5054C237833B9044810B10448AFF3D8
:1080100000800121217010BD685200200000000086
:10802000D8D0050808B5064B1BB106480649AFF382
:1080300000800648016811B1054A02B1904708BDA9
:1080400000000000D8D005086C52002064520020C7
:1080500000000000154B002B08BF134B9D46A3F5F5
:10806000803A00218B460F461348144A121A24F016
:1080700086FF0F4B002B00D098470E4B002B00D0F3
:1080800098470020002104460D4600200C4900229C
:10809000002324F08FFE24F0CFFE2046294605F071
:1080A0009BFB24F09DFE00BF0000080000000000C4
:1080B00000000000000000006852002044F0012091
:1080C0000DCE020830B585B00C46032836D801A87D
:1080D00021F032FFB4F5FA7F0DDB4FF00302ADF86B
:1080E000042046F64073C0F2401393FBF4F000F115
:1080F000FF3102910AE040F28F63ADF804304CF298
:10810000503090FBF4F101F1FF3502954FF000057E
:10811000ADF80C508DF80E50ADF806504FF40065D8
:10812000C4F20005284601A921F0B0FE28464FF40C
:10813000F0514FF0010222F043FB3CE0A0F10400BB
:10814000032836D801A821F0F7FEB4F5FA7F0DDD3B
:108150004FF00305ADF8045046F64073C0F24013EB
:1081600093FBF4F000F1FF3102910AE040F28F63DB
:10817000ADF804304CF2503090FBF4F101F1FF32D5
:1081800002924FF00005ADF80C508DF80E50ADF88E
:1081900006504FF48065C4F20005284601A921F07D
:1081A00075FE28464FF4F0514FF0010222F008FB13
:1081B00001E04FF0FF34204605B030BD10B586B069
:1081C0004FF06003ADF804304FF00101ADF8061038
:1081D0004FF00002ADF81020072800F23281DFE8EE
:1081E00010F008002D00520077009C00C100E6004E
:1081F0000B014FF40064C4F20004E26A02F10102D0
:1082000003EE102AF8EE433A23EE804ADFED8F4A60
:1082100084EE245AF7EE005A35EE656AFCEEC66A23
:10822000CDED036A204601A921F004FF20464FF05E
:10823000080122F089F84FF0000004E14FF40064D7
:10824000C4F20004E16A01F1010107EE901AF8EEB0
:10825000670A20EE800A9FED7D7A80EE071AF7EE1E
:10826000001A31EE612AFCEEC22ACDED032A204627
:1082700001A921F025FF20464FF0080122F06EF8F9
:108280004FF00000DFE04FF40064C4F20004E36A42
:1082900003F1010303EE103AF8EE433A23EE804A6D
:1082A000DFED6A4A84EE245AF7EE005A35EE656A2D
:1082B000FCEEC66ACDED036A204601A921F04EFF0F
:1082C00020464FF0080122F055F84FF00000BAE0C8
:1082D0004FF40064C4F20004E06A00F1010007EE0C
:1082E000900AF8EE670A20EE800A9FED587A80EE39
:1082F000071AF7EE001A31EE612AFCEEC22ACDED24
:10830000032A204601A921F075FF20464FF00801FD
:1083100022F03AF84FF0000095E04FF48064C4F288
:108320000004E26A02F1010203EE102AF8EE433A79
:1083300023EE804ADFED454A84EE245AF7EE005AD8
:1083400035EE656AFCEEC66ACDED036A204601A9EA
:1083500021F070FE20464FF0080121F0F5FF4FF0AC
:10836000000070E04FF48064C4F20004E16A01F19F
:10837000010107EE901AF8EE670A20EE800A9FEDE1
:10838000337A80EE071AF7EE001A31EE612AFCEE1E
:10839000C22ACDED032A204601A921F091FE2046F4
:1083A0004FF0080121F0DAFF4FF000004BE04FF4EE
:1083B0008064C4F20004E36A03F1010303EE103A9F
:1083C000F8EE433A23EE804ADFED204A84EE245A49
:1083D000F7EE005A35EE656AFCEEC66ACDED036A2B
:1083E000204601A921F0BAFE20464FF0080121F0F5
:1083F000C1FF4FF0000026E04FF48064C4F2000497
:10840000E06A00F1010007EE900AF8EE670A20EE3C
:10841000800A9FED0E7A80EE071AF7EE001A31EE11
:10842000612AFCEEC22ACDED032A204601A921F0E3
:10843000E1FE20464FF0080121F0A6FF4FF00000BA
:1084400001E04FF0FF3006B010BD00BF0000C84291
:1084500070B507283DD8DFE800F0040B121920277B
:108460002E354FF40061C4F20001486BCE6A34E04F
:108470004FF40063C4F20003986BDE6A2DE04FF402
:108480000066C4F20006F06BF66A26E04FF4006561
:10849000C4F20005286CEE6A1FE04FF48064C4F259
:1084A0000004606BE66A18E04FF48062C4F20002D8
:1084B000906BD66A11E04FF48061C4F20001C86B82
:1084C000CE6A0AE04FF48063C4F20003186CDE6ADF
:1084D00003E04FF0FF304FF0010623F0B5FD4FF001
:1084E00000024FF00003C4F2590323F023FE4FF0C3
:1084F00000024FF00003C3F6F07323F069FC04465A
:108500000D4606F1010023F09FFD02460B46204672
:10851000294623F039FF24F0EFF800EE100A70BD71
:1085200030B4002A14DD0B68984213DD4FF00003CD
:1085300012F0010F05D112E051F8045F854215DBFE
:108540000AE003F1010423469442F5D1134603E007
:10855000134601E04FF00003184630BC704703F1AA
:10856000010351F8044F8442EBDBF5E704F101030A
:1085700051F8044F8442E4DBEEE700BF38B5C41085
:1085800046BFE4435525D525204640F20401C2F2FA
:1085900000014FF00802FFF7C3FF072802DD85F056
:1085A0007F0038BD4FEA00130128D2BFC4F3430057
:1085B00044FA00F000F00F001843684038BD00BFD7
:1085C00080F055034FEA0310C0B2C3F3021212B198
:1085D000012A06D102E000F1080008E000F58470ED
:1085E00005E000F5847002F1FF3100FA01F013F0AC
:1085F000800F08BF4042704738B5801046BF4042E8
:108600007F25FF2541F6DF74A042B8BF044604F180
:108610002104204609494FF00802FFF781FF07288F
:1086200002DD85F07F0038BD00F1010344FA03F458
:1086300004F00F0444EA0010684038BD2400002014
:108640006FEA000000F00F034FEAC30101F184015B
:10865000C0F3021201FA02F110F0800F14BFC1F151
:108660008400A1F1840070472DE9F84389460E6823
:108670004FEA560619688E422DD81E602EB302EBC3
:10868000060814466FEA020308EB030202F0010633
:10869000054635F9020BFFF7AFFF04F8010B44451F
:1086A0001DD112E02F4637F9020BFFF7A5FF264632
:1086B00006F8010BB5F9020007F10205FFF79CFF70
:1086C000607006F101044445ECD1D9F800004FEA8E
:1086D0005000BDE8F8834FF00000BDE8F883002E9D
:1086E000E0D035F9020BFFF787FF04F8010B444592
:1086F000D8D1EAE72DE9F843894609684FEA4106EF
:108700001C68A6422CD81E6021B300EB0108154658
:1087100004466FEA000308EB030000F0010614F8BA
:10872000010BFFF78DFF25F8020B44451CD111E02A
:10873000274617F8010BFFF783FF2E4626F8020B9A
:10874000607807F10104FFF77BFF688006F10205FE
:108750004445EDD1D9F800204FEA4200BDE8F88346
:108760004FF00000BDE8F883002EE1D014F8010BB3
:10877000FFF766FF25F8020B4445D9D1EAE700BFB1
:108780002DE9F843B2F100092ADD01EB090805469D
:108790000C466FEA010308EB030000F0010614F831
:1087A000010BFFF74DFFA0F5004125F8021B4445E2
:1087B0001AD115E0274617F8010BFFF741FFA0F586
:1087C00000432E4626F8023B607807F10104FFF7CC
:1087D00037FFA0F50040688006F102054445E9D165
:1087E0004FEA4900BDE8F883002EE3D014F8010BEE
:1087F000FFF726FFA0F5004225F8022B4445D9D10A
:10880000EEE700BF2DE9F843B2F1000924DD01EBEA
:10881000090805460C466FEA010308EB030000F067
:10882000010614F8010BFFF7CBFE25F8020B4445B7
:1088300016D111E0274617F8010BFFF7C1FE2E46AF
:1088400026F8020B607807F10104FFF7B9FE688093
:1088500006F102054445EDD14FEA4900BDE8F88331
:10886000002EE7D014F8010BFFF7AAFE25F8020B43
:108870004445DFD1F0E700BF08B540B14FF4806058
:10888000C4F202004FF080011FF0C4F808BD4FF49D
:108890008060C4F202004FF080011FF0B9F808BDFB
:1088A00038B545F28424C2F2000446F69010C0F6B2
:1088B00005002168626808F09DF94FF00000FFF79D
:1088C000DBFF46F28805C4F2020528464FF000019E
:1088D00020F05AFF284620F01FFE21F055F84FF0F7
:1088E0000003A36063604FF00100E06038BD00BF8B
:1088F00038B545F28423C2F200035868B0F5207FF2
:1089000017DB45F28424C2F200042268216946F292
:108910005000C2F2010051184FF42072FFF730FFEF
:108920006068A0F520736360226902F520712161FF
:1089300038BD00281DDD46F25005C2F2010528466B
:108940004FF400414FF4207208F050FF45F28424A8
:10895000C2F20004216823692846C9186268FFF73B
:108960000FFF20696268811821614FF00003636086
:1089700038BD46F25000C2F201004FF400414FF4FE
:10898000207208F033FF45F28421C2F200014FF05B
:108990000102CA60FFF784FF38BD00BF38B545F259
:1089A0008423C2F200035868B0F5207F14DB45F23F
:1089B0008424C2F20004226821691E4851184FF431
:1089C0002072FFF7DDFE6068A0F520736360226906
:1089D00002F52071216138BD00281ADD154D2846A9
:1089E0004FF400414FF4207208F000FF45F2842458
:1089F000C2F20004216823692846C9186268FFF79B
:108A0000BFFE20696268811821614FF00003636036
:108A100038BD08484FF400414FF4207208F0E6FEDC
:108A200045F28421C2F200014FF00102CA60FFF753
:108A300037FF38BD506501202DE9F04196B046F66C
:108A4000B810C0F6050008F0D5F84FF0010545F262
:108A50008423C2F200039D604FF0000446F66020BC
:108A6000C2F20100046046F65821C2F201010C6016
:108A700046F66822C2F20102146046F28806C4F289
:108A800002063046214620F07FFE304620F044FDAD
:108A900020F07AFF4FF0020029461FF059F94FF0FD
:108AA000800701978DF808508DF80A404FF00203B7
:108AB0008DF809308DF80B504FF48060C4F202003D
:108AC00001A91EF0C3FE4FF0100701974FF00300FD
:108AD0008DF808008DF80B402046C4F2020001A971
:108AE0001EF0B4FE4FF00401129113941594204629
:108AF00012A920F057FF4FF06062039247F20C4337
:108B0000C4F20003049346F25000C2F20100059043
:108B10004FF0400106914FF4A062079208944FF481
:108B2000806309934FF400600A904FF40058CDF829
:108B30002C804FF480710C914FF400320D920E9402
:108B40000F9510941194304603A920F0DFFD08FA28
:108B500007F3304643F4746120F08AFE30464FF04C
:108B60009E012A4620F0A0FE8DF800708DF801408D
:108B70008DF802408DF8035068461EF049FD2046EE
:108B8000294620F031FF2046294620F0D3FF304609
:108B9000294620F0F9FD16B0BDE8F08138B505464C
:108BA0000C4646F6C810C0F605002946224608F0D5
:108BB00021F845F28423C2F200031D605C604FF08F
:108BC00000021A61DA60B4F5A06F15DD46F25000BC
:108BD000C2F2010029464FF4A062FFF7D1FD45F231
:108BE0008420C2F200004168A1F5A06343600269DD
:108BF00002F5A06101611CE0002C1ADD46F250056F
:108C0000C2F2010528464FF400414FF4A06208F07B
:108C1000EDFD45F28424C2F2000428462168626812
:108C2000FFF7AEFD20696168431823614FF0000231
:108C30006260FFF701FF4FF00100FFF71DFE38BD36
:108C40002DE9F84F814648B346F66C25C2F201057E
:108C50004FF000042646A8464FF00E07A246AB464A
:108C6000D5F8EC3173B104EBC40008EB800101F5D9
:108C7000E67049463A4624F0ABFB18B9C5F8ECA1BA
:108C800006F1010604F1010405F12405D5F8EC31E3
:108C9000DBB10BE02EB112F069FA04E04FF0FF36C1
:108CA00001E06FF003063046BDE8F88F04EBC40026
:108CB00008EB800101F5E67049463A4624F088FB4E
:108CC00018B9C5F8ECA106F1010604F1010405F19B
:108CD0002405B4F5807FC2D1DCE700BF2DE9F84F51
:108CE0008B468146002839D000293AD046F66C24BC
:108CF000C2F201044FF00005AA46A0464FF00E074D
:108D0000D4F8EC31DBB105EBC50008EB800101F5CF
:108D1000E67049463A4624F05BFB80B905EBC50294
:108D200008EB820303F5ED7059463A4624F050FBF8
:108D300028B94FF00000C4F8EC010AF1010A05F16E
:108D400001052E4604F12404D4F8EC1169B310E0B7
:108D5000BAF1000F08D012F009FA07E04FF0FF3A1D
:108D600004E04FF0FF3A01E06FF0030A5046BDE81F
:108D7000F88F05EBC50208EB820303F5E670494660
:108D80003A4624F025FB80B905EBC50608EB8600C2
:108D900000F5ED7059463A4624F01AFB28B94FF019
:108DA0000001C4F8EC110AF1010A05F1010504F112
:108DB0002404B5F5807FA3D1CAE700BF08B50548F4
:108DC0004FF000014FF4105224F0D9F812F0CEF910
:108DD00008BD00BF386C01202DE9F04F83B08B46F1
:108DE0000192824600284DD000294ED046F66C26CE
:108DF000C2F201064FF00004B1464FF00E08D6F85B
:108E0000EC519DB304EBC40009EB800101F5E67061
:108E10005146424624F0DCFA40BB04EBC40209EBA5
:108E2000820303F5ED705946424624F0D1FAE8B9C1
:108E300004EBC40046F66C21C2F2010101EB800292
:108E4000D2F8E831ED18B5F5805F21DC98B208F072
:108E5000E7FB0199086004EBC40446F66C20C2F2FB
:108E6000010000EB8402D2F8EC0113E004F10107E9
:108E70003C4606F12406D6F8EC512DB30DE06FF018
:108E8000030007E04FF0FF3004E04FF0FF3001E057
:108E90006FF0010003B0BDE8F08F07EBC70009EBEE
:108EA000800101F5E6705146424624F091FA58B926
:108EB00007EBC70209EB820303F5ED705946424602
:108EC00024F086FA0028B3D007F1010406F1240645
:108ED000B4F5807F93D1D2E72DE9F04F89B08A466F
:108EE000059204938146002800F03081002900F0AB
:108EF0003081BE4E4FF0000446F66C2BC2F2010BDF
:108F00004FF00E08D6F8EC51002D46D004EBC4000B
:108F10000BEB800101F5E6704946424624F058FA11
:108F200000283AD104EBC4020BEB820303F5ED7089
:108F30005146424624F04CFA78BB04EBC40446F692
:108F40006C20C2F2010000EB8402D2F8E8116E1826
:108F5000B6F5805F04DC129BC818B0F5805F0ADDAF
:108F600046F6F010C0F605002A46129B07F042FEB6
:108F70006FF00106FEE0049AAA4200F3ED80129E13
:108F800073180598049EB1B29AB208F0F3FAB04291
:108F90000CBF06466FF00206ECE004F101073C4608
:108FA00006F12406D6F8EC51002D00F01581FBE007
:108FB0004FF000084FF0FF340498129E8019039080
:108FC000C446CDF81890CDF81CA0B1E0324606F1A9
:108FD000010641F201039E4200F0C180834B6146CD
:108FE00002969B46D3F8E851954205DCD3F8EC6134
:108FF000AD19954200F39780B4F1FF3F04D1DBF83F
:10900000EC51002D08BF0C4601F101018A4603F125
:109010002403D3F8E851954200F3B580AEE0029EF8
:10902000BE42D3D1CDF80890DDF81890DDF81CA031
:1090300005E0CDF80890DDF81890DDF81CA0B4F13B
:10904000FF3F00F08F80129A08EB02030598049905
:1090500089B29AB208F08EFA0646049A90420CD071
:10906000129E009646F64820C0F605000599434634
:1090700007F0C0FD6FF008067CE04FEAC40B0BEB75
:1090800004074FEA870505F5E47046F66C27C2F23F
:109090000107C0194FF00005057145718571C57153
:1090A000057245728572C572057345738573C57304
:1090B0000574457400F1040049464FF00E0224F097
:1090C000D5F90BEB040207EB820383F8DA5183F83E
:1090D000DB5183F8DC5183F8DD5183F8DE5183F8EE
:1090E000DF5183F8E05183F8E15183F8E25183F8CE
:1090F000E35183F8E45183F8E55183F8E65183F8AE
:10910000E75103F5ED7051464FF00E0224F0AEF931
:109110005C4407EB8407C7F8E8810299C7F8EC11B3
:1091200012F024F826E008F10108B8F5805F1CD0A1
:10913000814600287FF77DAFB8F5805F18D008F131
:109140000106039D08EB0507424647E74FF0FF364F
:1091500010E04FF0FF360DE06FF004060AE06FF00C
:10916000050607E06FF0070604E06FF0060601E071
:109170006FF00506304609B0BDE8F08FD3F8EC611A
:10918000AD199542CFDCB4F1FF3F04D1D3F8EC51D7
:10919000002D08BF544601F1010103F12403B1F58C
:1091A000807F7FF41EAF3AE707EBC7000BEB80012F
:1091B00001F5E6704946424624F00AF960B907EB2A
:1091C000C7020BEB820303F5ED705146424624F0D3
:1091D000FFF800283FF4B1AE07F1010406F12406C0
:1091E000B4F5807F7FF48EAEE2E600BF6C6A0120AA
:1091F0002DE9F843044615469946884649B35AB3C3
:10920000FF282CDC4FEAC007391846F66C26C2F25C
:10921000010606EB8102404602F5E6714FF00E02B0
:1092200024F024F9381906EB8003284603F5ED7184
:109230004FF00E0224F01AF94FF0000188F80E10DA
:10924000A9733F1906EB8706D6F8EC21C9F8002070
:1092500007E04FF0FF3404E04FF0FF3401E06FF01F
:1092600001042046BDE8F88300B5C1B046F66C2382
:10927000C2F2010393F8BA00012840F0928045F24F
:109280009823C2F20003196C53F82120D2B94FF48D
:109290008840C4F2000069464FF480724FF0010329
:1092A00014F06CFD014645F6C843C2F2000318787D
:1092B000002800F0D68046F6A420C0F6050007F08E
:1092C00099FCCEE04FF48840C4F2000014F002FD97
:1092D00045F29823C2F20003196C53F82120D2F80A
:1092E0001032C3F58072904206DA4FF48840C4F21F
:1092F000000014F0EFFC0246002A0EDC45F6C841DF
:10930000C2F200010A78002A00F0AB8046F6E020A5
:10931000C0F6050007F06EFCA3E045F29820C2F20B
:109320000000016C50F82130D3F8100200F5847170
:109330004FF48840C4F2000059184FF0010314F0B4
:109340001DFD00280BDD45F29823C2F200031A6CC4
:1093500053F82210D1F810321818C1F8100245F253
:109360009821C2F200010A6C51F82230D3F81002A1
:10937000FF280CDD4FF0530002F0E8FC4FF05300E3
:109380004FF001014FF00002134609F0FDFB4FF0D2
:1093900053004FF01E014FF00002134602F092FC02
:1093A0005FE002285DD14FF48840C4F2000014F061
:1093B00091FC45F29821C2F200014A6CC2F580721C
:1093C000904206DA4FF48840C4F2000014F082FCA8
:1093D0000246002A0DDC45F6C842C2F200021078AF
:1093E00000283ED046F61830C0F6050007F002FC13
:1093F00037E045F29823C2F20003596C4FF48840DD
:10940000C4F2000049F63C03C2F20103C9184FF050
:10941000010314F0B3FC002806DD45F29821C2F2E6
:1094200000014A6C1018486445F29823C2F2000308
:10943000596CFF290CDD4FF0530002F087FC4FF010
:1094400053004FF001014FF00002134609F09CFB5E
:109450004FF053004FF005014FF00002134602F0A9
:1094600031FC41B000BD00BF38B545F29823C2F2CF
:109470000003986C002840F0C38145F29821C2F2A5
:1094800000010A6C4FF00F03C8F200031340002BD9
:1094900005DA03F1FF3464F00F0303F101031C4606
:1094A00045F29820C2F2000050F82330002B40F023
:1094B0006E8102F101014FF00F03C8F200030B406F
:1094C000002B05DA03F1FF3464F00F0303F101030D
:1094D0001C4645F29820C2F2000050F82330002BC1
:1094E00040F0558102F102014FF00F03C8F2000372
:1094F0000B40002B05DA03F1FF3464F00F0303F196
:1095000001031C4645F29820C2F2000050F82330B7
:10951000002B40F03C8102F103014FF00F03C8F231
:1095200000030B40002B05DA03F1FF3464F00F0356
:1095300003F101031C4645F29820C2F2000050F8E6
:109540002330002B40F0238102F104014FF00F0380
:10955000C8F200030B40002B05DA03F1FF3464F07E
:109560000F0303F101031C4645F29820C2F20000EC
:1095700050F82330002B40F00A8102F105014FF032
:109580000F03C8F200030B40002B05DA03F1FF3490
:1095900064F00F0303F101031C4645F29820C2F268
:1095A000000050F82330002B40F0F18002F106015A
:1095B0004FF00F03C8F200030B40002B05DA03F154
:1095C000FF3464F00F0303F101031C4645F29820B9
:1095D000C2F2000050F82330002B40F0D88002F196
:1095E00007014FF00F03C8F200030B40002B05DA10
:1095F00003F1FF3464F00F0303F101031C4645F24D
:109600009820C2F2000050F82330002B40F0BF80B9
:1096100002F108014FF00F03C8F200030B40002BCA
:1096200005DA03F1FF3464F00F0303F101031C4674
:1096300045F29820C2F2000050F82330002B40F091
:10964000A68002F109014FF00F03C8F200030B409E
:10965000002B05DA03F1FF3464F00F0303F101037B
:109660001C4645F29820C2F2000050F82330002B2F
:1096700040F08D8002F10A014FF00F03C8F20003A1
:109680000B40002B05DA03F1FF3464F00F0303F104
:1096900001031C4645F29820C2F2000050F8233026
:1096A000002B74D102F10B014FF00F03C8F200033D
:1096B0000B40002B05DA03F1FF3464F00F0303F1D4
:1096C00001031C4645F29820C2F2000050F82330F6
:1096D000002B5CD102F10C014FF00F03C8F2000324
:1096E0000B40002B05DA03F1FF3464F00F0303F1A4
:1096F00001031C4645F29820C2F2000050F82330C6
:10970000002B44D102F10D014FF00F03C8F200030A
:109710000B40002B05DA03F1FF3464F00F0303F173
:1097200001031C4645F29820C2F2000050F8233095
:109730006BBB02F10E014FF00F03C8F200030B40A8
:10974000002B05DA03F1FF3464F00F0303F101038A
:109750001C4645F29820C2F2000050F82330B3B9FD
:1097600002F10F024FF00F01C8F200011140002971
:1097700005DA01F1FF3262F00F0101F101010C463F
:1097800045F29823C2F2000353F82130C3B34FF4DB
:109790008840C4F2000003F10801D3F80C2213F052
:1097A0003BF945F29820C2F2000004644FF0010238
:1097B000826450F824104FF05300D1F808124FF093
:1097C0000002134602F07EFA45F6C843C2F20003D7
:1097D0001878A8B145F29825C2F2000555F8242062
:1097E00046F65430C0F60500D2F80C1207F002FA23
:1097F00055F8241001F10800B1F80C1208F070F8C7
:1098000038BD00BF2DE9F04385B0532840F0C48136
:1098100046F66C23C2F2010393F8BA00022840F026
:10982000088145F6C841C2F200010B7893B145F2B8
:109830009824C2F2000446F68830C0F60500616C38
:1098400007F0D8F949F63C00C2F20100B4F8441020
:1098500008F046F845F29820C2F20000416C032956
:1098600006DC46F6B830C0F6050007F0C3F9D8E0CC
:1098700049F63C04C2F20104A1F10201204689B27A
:1098800007F0D2FF024645F29821C2F200014B6C6C
:10989000E41814F8010C14F8021C41EA00218A4271
:1098A00006D046F6E430C0F6050007F0A3F9B8E0AC
:1098B00049F63C02C2F20102107846F66C21C2F26F
:1098C000010191F8BB20904240F0AB8049F63C0684
:1098D000C2F20106757896F802E0F77847EA0E2E94
:1098E00096F804C0747944EA0C2CB64E4FF000048C
:1098F0000EEB0C0806F104077068D0F80C12A942B0
:1099000050D1102D29D8D0F8102296454ADBD0F836
:109910001412884546DA00F5827049F63C01C2F21D
:1099200001011A4623F008FB45F29820C2F200001C
:1099300000EB8401CA6C10684FF000010B4609F07F
:1099400023F945F6C842C2F200021378002B68D012
:109950009D48214607F04EF963E000F5827049F614
:109960003C01C2F201011A4623F0E6FA45F29823BF
:10997000C2F2000303EB8402D26C10684FF00001C6
:109980000B4609F001F945F6C841C2F2000108781A
:10999000002846D046F62040C0F60500214607F0D4
:1099A00029F93EE004F101094C4607F10406786804
:1099B0002946D0F80C72AF4240F0FD80EFE045F64A
:1099C000C843C2F20003187868B146F65440C0F6A6
:1099D00005007246634607F00DF947F69850C0F649
:1099E000050007F007F946F66C21C2F2010191F873
:1099F000BB208DF8002065F07F058DF801504FF0F9
:109A000002038DF8023068464FF0030107F05CFF57
:109A10004FF48840C4F2000069464FF0050212F08E
:109A2000FBFF45F29820C2F200004FF000014164B4
:109A3000B2E0012840F0B08045F6C841C2F2000112
:109A40000A78BAB145F29824C2F20004236C54F8A3
:109A5000231046F6A840C0F60500D1F8101207F012
:109A6000C9F8206C54F8202002F58470B2F8101266
:109A700007F036FF45F29823C2F20003196C53F841
:109A80002120D2F8103233B950684FF000010B4654
:109A900009F07AF869E0032B13DC46F6D840C0F6EB
:109AA000050007F0A7F845F29820C2F20000016C0B
:109AB00050F8212050684FF000010B4609F064F87F
:109AC00053E092F80941102C17D892F909514FF040
:109AD000010000FA05F111F4C03F11D111F0600F3F
:109AE00003D111F01E0F03D107E04FF0070409E086
:109AF00092F80A4104F1030404E0A3F1020401E036
:109B00004FF0060402F58470A1B207F08DFE024604
:109B100045F29825C2F200052B6C55F82350A3B2EC
:109B2000EC1894F8090194F8081141EA00218A42DE
:109B300013D046F60050C0F6050007F05BF845F27A
:109B40009823C2F200031A6C53F8222050684FF099
:109B500000010B4609F018F812E028684FF00001E8
:109B60002A460B4609F010F80AE045F29823C2F2A3
:109B700000031A6C53F822004FF00001C0F81012D5
:109B800045F29823C2F20003186C4FF0000243F82C
:109B900020209A64FFF768FC05B0BDE8F083102D23
:109BA0003FF6DBAED0F81022964504DBD0F8142245
:109BB0009045FFF6B0AE09F10104402C7FF49AAE57
:109BC000FDE600BFE0520020206C050870B501469C
:109BD000002800F0BF8146F66C23C2F2010393F81F
:109BE000BA0001281AD145F29822C2F20002136C81
:109BF0004FF00F02C8F200021A40002A05DA02F103
:109C0000FF3464F00F0202F10102144645F298207D
:109C1000C2F2000050F822204AB97FE146F65050C7
:109C2000C0F6050006F0E6FF4FF0FF3070BD03F10F
:109C300001044FF00F02C8F200022240002A05DAA8
:109C400002F1FF3060F00F0202F10102144645F20A
:109C50009820C2F2000050F82220002A00F05E8115
:109C600003F102044FF00F02C8F200022240002A62
:109C700005DA02F1FF3060F00F0202F10102144632
:109C800045F29820C2F2000050F82220002A00F08D
:109C9000458103F103044FF00F02C8F20002224095
:109CA000002A05DA02F1FF3060F00F0202F1010232
:109CB000144645F29820C2F2000050F82220002AF3
:109CC00000F02C8103F104044FF00F02C8F20002EF
:109CD0002240002A05DA02F1FF3060F00F0202F1A3
:109CE0000102144645F29820C2F2000050F82220EA
:109CF000002A00F0138103F105044FF00F02C8F2AF
:109D000000022240002A05DA02F1FF3060F00F0263
:109D100002F10102144645F29820C2F2000050F808
:109D20002220002A00F0FA8003F106044FF00F020F
:109D3000C8F200022240002A05DA02F1FF3060F08A
:109D40000F0202F10102144645F29820C2F200000F
:109D500050F82220002A00F0E18003F107044FF0C0
:109D60000F02C8F200022240002A05DA02F1FF3099
:109D700060F00F0202F10102144645F29820C2F28F
:109D8000000050F82220002A00F0C88003F10804E7
:109D90004FF00F02C8F200022240002A05DA02F159
:109DA000FF3060F00F0202F10102144645F29820E4
:109DB000C2F2000050F82220002A00F0AF8003F128
:109DC00009044FF00F02C8F200022240002A05DA0F
:109DD00002F1FF3060F00F0202F10102144645F279
:109DE0009820C2F2000050F82220002A00F096804D
:109DF00003F10A044FF00F02C8F200022240002AC9
:109E000005DA02F1FF3060F00F0202F101021446A0
:109E100045F29820C2F2000050F82220002A7DD09E
:109E200003F10B044FF00F02C8F200022240002A97
:109E300005DA02F1FF3060F00F0202F10102144670
:109E400045F29820C2F2000050F82220002A65D086
:109E500003F10C044FF00F02C8F200022240002A66
:109E600005DA02F1FF3060F00F0202F10102144640
:109E700045F29820C2F2000050F82220002A4DD06E
:109E800003F10D044FF00F02C8F200022240002A35
:109E900005DA02F1FF3060F00F0202F10102144610
:109EA00045F29820C2F2000050F82220B2B303F12C
:109EB0000E044FF00F02C8F200022240002A05DA19
:109EC00002F1FF3060F00F0202F10102144645F288
:109ED0009820C2F2000050F82220FAB103F10F03DB
:109EE0004FF00F00C8F200001840002805DA00F11A
:109EF000FF3363F00F0000F10100044645F29822A1
:109F0000C2F2000252F8203043B146F6A050C0F62B
:109F1000050006F06FFE6FF0010070BD45F2982657
:109F2000C2F2000646F824104FF00005C1F81052A6
:109F300001F10800B1F80C1207F0C6FC56F8241025
:109F4000D1F80C0200F10200C1F80C02FFF78CFA04
:109F5000284670BD4FF0FF3070BD00BF38B50446D5
:109F60000D4645F29823C2F20003186818B345F273
:109F70009821C2F200018A6CB2B90268944210DDE5
:109F800009E022F087FF45F29820C2F200004FF06E
:109F9000000101600FE043689C420CDC9D42F0DA56
:109FA00009E09542EDDAF6E745F29823C2F20003A4
:109FB000196C0029E1D145F29822C2F200025068E2
:109FC00018B345F29823C2F20003996CB1B9016845
:109FD0008C4210DD09E022F05DFF45F29820C2F2CC
:109FE00000004FF0000343600FE0426894420CDC35
:109FF0009542F0DA09E08D42EDDAF6E745F2982273
:10A00000C2F20002136C012BE1D145F29821C2F299
:10A010000001886818B345F29822C2F20002936CDE
:10A02000B3B903689C4210DD09E022F033FF45F22A
:10A030009820C2F200004FF0000282600FE04168F9
:10A040008C420CDC8D42F0DA09E09D42EDDAF6E755
:10A0500045F29821C2F200010A6C022AE1D145F2D0
:10A060009823C2F20003D86818B345F29821C2F2CF
:10A0700000018A6CB2B90268944210DD09E022F056
:10A0800009FF45F29820C2F200004FF00001C160C4
:10A090000FE043689C420CDC9D42F0DA09E09542F7
:10A0A000EDDAF6E745F29823C2F20003196C0329B2
:10A0B000E1D145F29822C2F20002106918B345F2CC
:10A0C0009823C2F20003996CB1B901688C4210DD8B
:10A0D00009E022F0DFFE45F29820C2F200004FF0C6
:10A0E000000303610FE0426894420CDC9542F0DA11
:10A0F00009E08D42EDDAF6E745F29822C2F200025D
:10A10000136C042BE1D145F29821C2F20001486999
:10A1100018B345F29822C2F20002936CB3B90368F7
:10A120009C4210DD09E022F0B5FE45F29820C2F213
:10A1300000004FF0000242610FE041688C420CDCED
:10A140008D42F0DA09E09D42EDDAF6E745F298211A
:10A15000C2F200010A6C052AE1D145F29823C2F24D
:10A160000003986918B345F29821C2F200018A6C85
:10A17000B2B90268944210DD09E022F08BFE45F28C
:10A180009820C2F200004FF0000181610FE04368A7
:10A190009C420CDC9D42F0DA09E09542EDDAF6E7EC
:10A1A00045F29823C2F20003196C0629E1D145F269
:10A1B0009822C2F20002D06918B345F29823C2F285
:10A1C0000003996CB1B901688C4210DD09E022F0FE
:10A1D00061FE45F29820C2F200004FF00003C36117
:10A1E0000FE0426894420CDC9542F0DA09E08D42BF
:10A1F000EDDAF6E745F29822C2F20002136C072B63
:10A20000E1D145F29821C2F20001086A18B345F283
:10A210009822C2F20002936CB3B903689C4210DD2D
:10A2200009E022F037FE45F29820C2F200004FF01C
:10A23000000202620FE041688C420CDC8D42F0DAD1
:10A2400009E09D42EDDAF6E745F29821C2F20001FD
:10A250000A6C082AE1D145F29823C2F20003586A39
:10A2600018B345F29821C2F200018A6CB2B90268B3
:10A27000944210DD09E022F00DFE45F29820C2F272
:10A2800000004FF0000141620FE043689C420CDC8B
:10A290009D42F0DA09E09542EDDAF6E745F29823BF
:10A2A000C2F20003196C0929E1D145F29822C2F2E9
:10A2B0000002906A18B345F29823C2F20003996C29
:10A2C000B1B901688C4210DD09E022F0E3FD45F2EE
:10A2D0009820C2F200004FF0000383620FE0426852
:10A2E00094420CDC9542F0DA09E08D42EDDAF6E7B3
:10A2F00045F29822C2F20002136C0A2BE1D145F21A
:10A300009821C2F20001C86A18B345F29822C2F23D
:10A310000002936CB3B903689C4210DD09E022F09F
:10A32000B9FD45F29820C2F200004FF00002C2626F
:10A330000FE041688C420CDC8D42F0DA09E09D426E
:10A34000EDDAF6E745F29821C2F200010A6C0B2A19
:10A35000E1D145F29823C2F20003186B18B345F21D
:10A360009821C2F200018A6CB2B90268944210DDF1
:10A3700009E022F08FFD45F29820C2F200004FF074
:10A38000000101630FE043689C420CDC9D42F0DA5F
:10A3900009E09542EDDAF6E745F29823C2F20003B0
:10A3A000196C0C29E1D145F29822C2F20002506BDF
:10A3B00018B345F29823C2F20003996CB1B9016851
:10A3C0008C4210DD09E022F065FD45F29820C2F2D2
:10A3D00000004FF0000343630FE0426894420CDC3E
:10A3E0009542F0DA09E08D42EDDAF6E745F298227F
:10A3F000C2F20002136C0D2BE1D145F29821C2F29A
:10A400000001886B18B345F29822C2F20002936CE7
:10A41000B3B903689C4210DD09E022F03BFD45F230
:10A420009820C2F200004FF0000282630FE0416802
:10A430008C420CDC8D42F0DA09E09D42EDDAF6E761
:10A4400045F29821C2F200010A6C0E2AE1D145F2D0
:10A450009823C2F20003D86BF8B145F29821C2F2FA
:10A4600000018A6C32B145F29823C2F20003196CE4
:10A470000F2912D00268A24201DBAA4204DD436820
:10A480009C420ADC9D4208DB22F004FD45F2982044
:10A49000C2F200004FF00001C16338BD70B506463E
:10A4A00000283BD046F66C23C2F2010393F8BA00B1
:10A4B000022806D145F29821C2F20001CA6C4AB9BD
:10A4C00020E046F6F450C0F6050006F093FB4FF08E
:10A4D000FF3070BD19484FF0010350F8041F31B12F
:10A4E00003F101042346024652F8045FCDB9402B24
:10A4F0000AD146F64060C0F6050006F07BFB6FF01F
:10A50000010070BD4FF0000345F29820C2F2000038
:10A5100000EB8302D6644FF0000070BD4FF0FF30B7
:10A5200070BD04F10103516800F108000029DED07C
:10A5300004F10203402BD0D1DBE700BFE45200203E
:10A5400038B50546002832D046F66C23C2F2010326
:10A5500093F8BA0002282DD0D5F81012B1F57A7F01
:10A5600028DB46F68C60C0F6050006F043FB4FF092
:10A57000FF3038BD52F8040FA8420CD101E04FF073
:10A58000000345F29822C2F2000202EB83014FF071
:10A590000000C86438BD03F101042346114651F898
:10A5A000040FA84211D1ECE76FF0010038BD4FF065
:10A5B000FF3038BD45F29822C2F20002D36CAB42A4
:10A5C000DDD0084A4FF00103D4E704F101034968E4
:10A5D00002F10802A942D4D004F10203402BC9D1F0
:10A5E000E2E700BFE45200202DE9F04105460F46A6
:10A5F00045F29826C2F2000606F14C0406F5A6764E
:10A600004FF0000854F8040B40B10368AB4205DB7F
:10A61000BB4203DC22F03EFC44F8048C54F8040BEB
:10A6200000B908E00168A94205DBB94203DC22F069
:10A6300031FC44F8048CB442E4D1BDE8F08100BFA1
:10A6400070B50646002867D046F66C23C2F20103B7
:10A6500093F8BA00022804D0D6F81012B1F57A7F28
:10A6600003DA32484FF0000308E046F6DC60C0F63B
:10A67000050006F0BFFA4FF0FF3070BD00F1040492
:10A6800042680AB1964208D003F101052B4604F155
:10A6900004006468002C42D143E0402B09D146F607
:10A6A0002470C0F60500314606F0A4FA4FF0FF30E2
:10A6B00070BD4FF00004C6F8084246F66C21C2F2A5
:10A6C000010191F8BB20344604F8042F2046B6F867
:10A6D000041207F0F9F8D6F8041201F10201C6F8E5
:10A6E000041245F6C840C2F20000037853B146F6A2
:10A6F0008470C0F6050006F07DFA2046B6F8041214
:10A7000007F0EEF84FF48840C4F200002146D6F876
:10A71000042212F081F970BD4FF0FF3070BDA642E7
:10A72000BBD005F10103402BA8D1B8E7E0520020CF
:10A7300000B5C1B046F66C23C2F2010393F8BF0026
:10A74000012840F0928045F2E433C2F20003196C14
:10A7500053F82120D2B94FF49040C4F2000069466A
:10A760004FF480724FF0010313F008FB014645F6E9
:10A77000C843C2F200031878002800F0D68046F6DD
:10A78000C070C0F6050006F035FACEE04FF49040F8
:10A79000C4F2000013F09EFA45F2E433C2F2000363
:10A7A000196C53F82120D2F81032C3F58072904210
:10A7B00006DA4FF49040C4F2000013F08BFA024620
:10A7C000002A0EDC45F6C841C2F200010A78002AD0
:10A7D00000F0AB8046F6E020C0F6050006F00AFA6D
:10A7E000A3E045F2E430C2F20000016C50F82130E1
:10A7F000D3F8100200F584714FF49040C4F20000C9
:10A8000059184FF0010313F0B9FA00280BDD45F297
:10A81000E433C2F200031A6C53F82210D1F810325C
:10A820001818C1F8100245F2E431C2F200010A6CB6
:10A8300051F82230D3F81002FF280CDD4FF05700FA
:10A8400001F084FA4FF057004FF001014FF0000281
:10A85000134608F099F94FF057004FF01E014FF0E2
:10A860000002134601F02EFA5FE002285DD14FF49A
:10A870009040C4F2000013F02DFA45F2E431C2F228
:10A8800000014A6CC2F58072904206DA4FF49040A3
:10A89000C4F2000013F01EFA0246002A0DDC45F651
:10A8A000C842C2F20002107800283ED046F6FC7082
:10A8B000C0F6050006F09EF937E045F2E433C2F237
:10A8C0000003596C4FF49040C4F2000049F63C1369
:10A8D000C2F20103C9184FF0010313F04FFA002828
:10A8E00006DD45F2E431C2F200014A6C10184864FA
:10A8F00045F2E433C2F20003596CFF290CDD4FF03E
:10A90000570001F023FA4FF057004FF001014FF0CC
:10A910000002134608F038F94FF057004FF00501D8
:10A920004FF00002134601F0CDF941B000BD00BF69
:10A9300038B545F2E433C2F20003986C002840F0C9
:10A94000C38145F2E431C2F200010A6C4FF00F03FB
:10A95000C8F200031340002B05DA03F1FF3464F062
:10A960000F0303F101031C4645F2E430C2F200007C
:10A9700050F82330002B40F06E8102F101014FF0BE
:10A980000F03C8F200030B40002B05DA03F1FF347C
:10A9900064F00F0303F101031C4645F2E430C2F2F8
:10A9A000000050F82330002B40F0558102F10201E5
:10A9B0004FF00F03C8F200030B40002B05DA03F140
:10A9C000FF3464F00F0303F101031C4645F2E43049
:10A9D000C2F2000050F82330002B40F03C8102F11D
:10A9E00003014FF00F03C8F200030B40002B05DA00
:10A9F00003F1FF3464F00F0303F101031C4645F239
:10AA0000E430C2F2000050F82330002B40F02381E4
:10AA100002F104014FF00F03C8F200030B40002BBA
:10AA200005DA03F1FF3464F00F0303F101031C4660
:10AA300045F2E430C2F2000050F82330002B40F021
:10AA40000A8102F105014FF00F03C8F200030B4029
:10AA5000002B05DA03F1FF3464F00F0303F1010367
:10AA60001C4645F2E430C2F2000050F82330002BBF
:10AA700040F0F18002F106014FF00F03C8F200032D
:10AA80000B40002B05DA03F1FF3464F00F0303F1F0
:10AA900001031C4645F2E430C2F2000050F82330B6
:10AAA000002B40F0D88002F107014FF00F03C8F2ED
:10AAB00000030B40002B05DA03F1FF3464F00F03B1
:10AAC00003F101031C4645F2E430C2F2000050F8E5
:10AAD0002330002B40F0BF8002F108014FF00F033C
:10AAE000C8F200030B40002B05DA03F1FF3464F0D9
:10AAF0000F0303F101031C4645F2E430C2F20000EB
:10AB000050F82330002B40F0A68002F109014FF0ED
:10AB10000F03C8F200030B40002B05DA03F1FF34EA
:10AB200064F00F0303F101031C4645F2E430C2F266
:10AB3000000050F82330002B40F08D8002F10A0114
:10AB40004FF00F03C8F200030B40002B05DA03F1AE
:10AB5000FF3464F00F0303F101031C4645F2E430B7
:10AB6000C2F2000050F82330002B74D102F10B0127
:10AB70004FF00F03C8F200030B40002B05DA03F17E
:10AB8000FF3464F00F0303F101031C4645F2E43087
:10AB9000C2F2000050F82330002B5CD102F10C010E
:10ABA0004FF00F03C8F200030B40002B05DA03F14E
:10ABB000FF3464F00F0303F101031C4645F2E43057
:10ABC000C2F2000050F82330002B44D102F10D01F5
:10ABD0004FF00F03C8F200030B40002B05DA03F11E
:10ABE000FF3464F00F0303F101031C4645F2E43027
:10ABF000C2F2000050F823306BBB02F10E014FF09F
:10AC00000F03C8F200030B40002B05DA03F1FF34F9
:10AC100064F00F0303F101031C4645F2E430C2F275
:10AC2000000050F82330B3B902F10F024FF00F01CA
:10AC3000C8F200011140002905DA01F1FF3262F08B
:10AC40000F0101F101010C4645F2E433C2F20003A9
:10AC500053F82130C3B34FF49040C4F2000003F125
:10AC60000801D3F80C2211F0D7FE45F2E430C2F20D
:10AC7000000004644FF00102826450F824104FF089
:10AC80005700D1F808124FF00002134601F01AF8ED
:10AC900045F6C843C2F200031878A8B145F2E4357E
:10ACA000C2F2000555F8242047F23800C0F605002E
:10ACB000D2F80C1205F09EFF55F8241001F108009F
:10ACC000B1F80C1206F00CFE38BD00BF2DE9F043C0
:10ACD00085B0572840F0BD8146F66C23C2F20103CF
:10ACE00093F8BF00022840F0088145F6C842C2F23E
:10ACF0000002107890B145F2E434C2F2000447F249
:10AD00006C00C0F60500616C05F074FF49F63C105C
:10AD1000C2F20100B4F8441006F0E2FD45F2E4315D
:10AD2000C2F20001496C032906DC47F29C00C0F620
:10AD3000050005F05FFFD8E049F63C14C2F20104BB
:10AD4000A1F10201204689B206F06EFD024645F2ED
:10AD5000E433C2F200035B6CE41814F8010C14F83D
:10AD6000021C41EA00218A4206D047F2C800C0F620
:10AD7000050005F03FFFB8E049F63C12C2F20102BF
:10AD8000107846F66C21C2F2010191F8C020904281
:10AD900040F0AB8049F63C16C2F20106757896F891
:10ADA00002E0F77847EA0E2E96F804C0747944EA78
:10ADB0000C2CB24E4FF000040EEB0C0806F1040709
:10ADC0007068D0F80C12A94250D1102D29D8D0F8B3
:10ADD000102296454ADBD0F81412884546DA00F571
:10ADE000827049F63C11C2F201011A4622F0A4F821
:10ADF00045F2E430C2F2000000EB8401CA6C106836
:10AE00004FF000010B4607F0BFFE45F6C842C2F204
:10AE100000021378002B68D09948214605F0EAFE1D
:10AE200063E000F5827049F63C11C2F201011A4656
:10AE300022F082F845F2E433C2F2000303EB84020D
:10AE4000D26C10684FF000010B4607F09DFE45F6EE
:10AE5000C841C2F200010878002846D047F2041029
:10AE6000C0F60500214605F0C5FE3EE004F10109EB
:10AE70004C4607F1040678682946D0F80C72AF42B8
:10AE800040F0F680E8E045F6C843C2F200031878C7
:10AE900068B147F23810C0F605007246634605F007
:10AEA000A9FE47F69850C0F6050005F0A3FE46F649
:10AEB0006C21C2F2010191F8C0208DF8002065F0EC
:10AEC0007F058DF801504FF002038DF8023068467F
:10AED0004FF0030106F0F8FC4FF49040C4F200007C
:10AEE00069464FF0050211F097FD45F2E430C2F2D9
:10AEF00000004FF000014164ABE0012840F0A98060
:10AF000045F6C841C2F200010A78BAB145F2E4340C
:10AF1000C2F20004236C54F8231047F28C10C0F6E0
:10AF20000500D1F8101205F065FE206C54F82020C1
:10AF300002F58470B2F8101206F0D2FC45F2E43348
:10AF4000C2F20003196C53F82120D2F8103233B941
:10AF500050684FF000010B4607F016FE62E0032B2D
:10AF60000CDC50684FF000010B4607F00DFE47F275
:10AF7000BC10C0F6050005F03DFE53E092F8094113
:10AF8000102C17D892F909514FF0010000FA05F181
:10AF900011F4C03F11D111F0600F03D111F01E0F59
:10AFA00003D107E04FF0070409E092F80A4104F1E9
:10AFB000030404E0A3F1020401E04FF0060402F5EB
:10AFC0008470A1B206F030FC024645F2E435C2F2CC
:10AFD00000052B6C55F82350A3B2EC1894F8090126
:10AFE00094F8081141EA00218A4213D047F2E41094
:10AFF000C0F6050005F0FEFD45F2E433C2F20003A1
:10B000001A6C53F8222050684FF000010B4607F0ED
:10B01000BBFD12E028684FF000012A460B4607F0FE
:10B02000B3FD0AE045F2E430C2F20000016C50F8D2
:10B0300021304FF00002C3F8102245F2E430C2F292
:10B040000000016C4FF0000340F821308364FFF7EB
:10B050006FFC05B0BDE8F083102D3FF6E2AED0F8EE
:10B060001022964504DBD0F814229045FFF6B7AEC7
:10B0700009F10104402C7FF4A1AE04E72C54002018
:10B080000471050870B50146002800F0BF8146F63E
:10B090006C23C2F2010393F8BF0001281AD145F2D4
:10B0A000E432C2F20002136C4FF00F02C8F2000249
:10B0B0001A40002A05DA02F1FF3464F00F0202F1AF
:10B0C0000102144645F2E430C2F2000050F822209A
:10B0D0004AB97FE147F23420C0F6050005F08AFD49
:10B0E0004FF0FF3070BD03F101044FF00F02C8F2C2
:10B0F00000022240002A05DA02F1FF3060F00F0260
:10B1000002F10102144645F2E430C2F2000050F8A8
:10B110002220002A00F05E8103F102044FF00F02AA
:10B12000C8F200022240002A05DA02F1FF3060F086
:10B130000F0202F10102144645F2E430C2F20000AF
:10B1400050F82220002A00F0458103F103044FF05B
:10B150000F02C8F200022240002A05DA02F1FF3095
:10B1600060F00F0202F10102144645F2E430C2F22F
:10B17000000050F82220002A00F02C8103F1040482
:10B180004FF00F02C8F200022240002A05DA02F155
:10B19000FF3060F00F0202F10102144645F2E43084
:10B1A000C2F2000050F82220002A00F0138103F1BF
:10B1B00005044FF00F02C8F200022240002A05DA0F
:10B1C00002F1FF3060F00F0202F10102144645F275
:10B1D000E430C2F2000050F82220002A00F0FA8089
:10B1E00003F106044FF00F02C8F200022240002AC9
:10B1F00005DA02F1FF3060F00F0202F1010214469D
:10B2000045F2E430C2F2000050F82220002A00F09B
:10B21000E18003F107044FF00F02C8F20002224060
:10B22000002A05DA02F1FF3060F00F0202F101029C
:10B23000144645F2E430C2F2000050F82220002A01
:10B2400000F0C88003F108044FF00F02C8F20002BA
:10B250002240002A05DA02F1FF3060F00F0202F10D
:10B260000102144645F2E430C2F2000050F82220F8
:10B27000002A00F0AF8003F109044FF00F02C8F27A
:10B2800000022240002A05DA02F1FF3060F00F02CE
:10B2900002F10102144645F2E430C2F2000050F817
:10B2A0002220002A00F0968003F10A044FF00F02DA
:10B2B000C8F200022240002A05DA02F1FF3060F0F5
:10B2C0000F0202F10102144645F2E430C2F200001E
:10B2D00050F82220002A7DD003F10B044FF00F021A
:10B2E000C8F200022240002A05DA02F1FF3060F0C5
:10B2F0000F0202F10102144645F2E430C2F20000EE
:10B3000050F82220002A65D003F10C044FF00F0200
:10B31000C8F200022240002A05DA02F1FF3060F094
:10B320000F0202F10102144645F2E430C2F20000BD
:10B3300050F82220002A4DD003F10D044FF00F02E7
:10B34000C8F200022240002A05DA02F1FF3060F064
:10B350000F0202F10102144645F2E430C2F200008D
:10B3600050F82220B2B303F10E044FF00F02C8F2DE
:10B3700000022240002A05DA02F1FF3060F00F02DD
:10B3800002F10102144645F2E430C2F2000050F826
:10B390002220FAB103F10F034FF00F00C8F20000B2
:10B3A0001840002805DA00F1FF3363F00F0000F1C8
:10B3B0000100044645F2E432C2F2000252F82030A5
:10B3C00043B147F28420C0F6050005F013FC6FF08E
:10B3D000010070BD45F2E436C2F2000646F82410C2
:10B3E0004FF00005C1F8105201F10800B1F80C123D
:10B3F00006F06AFA56F82410D1F80C0200F10200A7
:10B40000C1F80C02FFF794FA284670BD4FF0FF30E8
:10B4100070BD00BF38B504460D4645F2E433C2F2B4
:10B420000003186818B345F2E431C2F200018A6CD7
:10B43000B2B90268944210DD09E021F02BFD45F21B
:10B44000E430C2F200004FF0000101600FE04368F9
:10B450009C420CDC9D42F0DA09E09542EDDAF6E719
:10B4600045F2E433C2F20003196C0029E1D145F240
:10B47000E432C2F20002506818B345F2E433C2F27B
:10B480000003996CB1B901688C4210DD09E021F02C
:10B4900001FD45F2E430C2F200004FF000034360CA
:10B4A0000FE0426894420CDC9542F0DA09E08D42EC
:10B4B000EDDAF6E745F2E432C2F20002136C012B3A
:10B4C000E1D145F2E431C2F20001886818B345F2D7
:10B4D000E432C2F20002936CB3B903689C4210DDFF
:10B4E00009E021F0D7FC45F2E430C2F200004FF051
:10B4F000000282600FE041688C420CDC8D42F0DA81
:10B5000009E09D42EDDAF6E745F2E431C2F20001CE
:10B510000A6C022AE1D145F2E433C2F20003D86892
:10B5200018B345F2E431C2F200018A6CB2B9026884
:10B53000944210DD09E021F0ADFC45F2E430C2F2A6
:10B5400000004FF00001C1600FE043689C420CDC3A
:10B550009D42F0DA09E09542EDDAF6E745F2E43390
:10B56000C2F20003196C0329E1D145F2E432C2F2C0
:10B570000002106918B345F2E433C2F20003996C7B
:10B58000B1B901688C4210DD09E021F083FC45F27D
:10B59000E430C2F200004FF0000303610FE04268A4
:10B5A00094420CDC9542F0DA09E08D42EDDAF6E7E0
:10B5B00045F2E432C2F20002136C042BE1D145F2F1
:10B5C000E431C2F20001486918B345F2E432C2F234
:10B5D0000002936CB3B903689C4210DD09E021F0CE
:10B5E00059FC45F2E430C2F200004FF00002426123
:10B5F0000FE041688C420CDC8D42F0DA09E09D429C
:10B60000EDDAF6E745F2E431C2F200010A6C052AF0
:10B61000E1D145F2E433C2F20003986918B345F270
:10B62000E431C2F200018A6CB2B90268944210DDC2
:10B6300009E021F02FFC45F2E430C2F200004FF0A7
:10B64000000181610FE043689C420CDC9D42F0DA0E
:10B6500009E09542EDDAF6E745F2E433C2F2000381
:10B66000196C0629E1D145F2E432C2F20002D06938
:10B6700018B345F2E433C2F20003996CB1B9016822
:10B680008C4210DD09E021F005FC45F2E430C2F205
:10B6900000004FF00003C3610FE0426894420CDCED
:10B6A0009542F0DA09E08D42EDDAF6E745F2E43250
:10B6B000C2F20002136C072BE1D145F2E431C2F271
:10B6C0000001086A18B345F2E432C2F20002936C3A
:10B6D000B3B903689C4210DD09E021F0DBFB45F2C1
:10B6E000E430C2F200004FF0000202620FE0416855
:10B6F0008C420CDC8D42F0DA09E09D42EDDAF6E78F
:10B7000045F2E431C2F200010A6C082AE1D145F2A7
:10B71000E433C2F20003586A18B345F2E431C2F2CE
:10B7200000018A6CB2B90268944210DD09E021F090
:10B73000B1FB45F2E430C2F200004FF0000141627B
:10B740000FE043689C420CDC9D42F0DA09E0954230
:10B75000EDDAF6E745F2E433C2F20003196C092989
:10B76000E1D145F2E432C2F20002906A18B345F228
:10B77000E433C2F20003996CB1B901688C4210DD68
:10B7800009E021F087FB45F2E430C2F200004FF0FF
:10B79000000383620FE0426894420CDC9542F0DAC9
:10B7A00009E08D42EDDAF6E745F2E432C2F200023A
:10B7B000136C0A2BE1D145F2E431C2F20001C86AF0
:10B7C00018B345F2E432C2F20002936CB3B90368D5
:10B7D0009C4210DD09E021F05DFB45F2E430C2F24D
:10B7E00000004FF00002C2620FE041688C420CDCA6
:10B7F0008D42F0DA09E09D42EDDAF6E745F2E431F8
:10B80000C2F200010A6C0B2AE1D145F2E433C2F224
:10B810000003186B18B345F2E431C2F200018A6CE0
:10B82000B2B90268944210DD09E021F033FB45F221
:10B83000E430C2F200004FF0000101630FE0436802
:10B840009C420CDC9D42F0DA09E09542EDDAF6E725
:10B8500045F2E433C2F20003196C0C29E1D145F240
:10B86000E432C2F20002506B18B345F2E433C2F284
:10B870000003996CB1B901688C4210DD09E021F038
:10B8800009FB45F2E430C2F200004FF000034363CD
:10B890000FE0426894420CDC9542F0DA09E08D42F8
:10B8A000EDDAF6E745F2E432C2F20002136C0D2B3A
:10B8B000E1D145F2E431C2F20001886B18B345F2E0
:10B8C000E432C2F20002936CB3B903689C4210DD0B
:10B8D00009E021F0DFFA45F2E430C2F200004FF057
:10B8E000000282630FE041688C420CDC8D42F0DA8A
:10B8F00009E09D42EDDAF6E745F2E431C2F20001DB
:10B900000A6C0E2AE1D145F2E433C2F20003D86B8F
:10B91000F8B145F2E431C2F200018A6C32B145F26D
:10B92000E433C2F20003196C0F2912D00268A2425C
:10B9300001DBAA4204DD43689C420ADC9D4208DB2D
:10B9400021F0A8FA45F2E430C2F200004FF0000105
:10B95000C16338BD70B5064600283BD046F66C235F
:10B96000C2F2010393F8BF00022806D145F2E43188
:10B97000C2F20001CA6C4AB920E047F2D820C0F6F2
:10B98000050005F037F94FF0FF3070BD19484FF052
:10B99000010350F8041F31B103F1010423460246AC
:10B9A00052F8045FCDB9402B0AD147F22430C0F6DB
:10B9B000050005F01FF96FF0010070BD4FF00003A6
:10B9C00045F2E430C2F2000000EB8302D6644FF08F
:10B9D000000070BD4FF0FF3070BD04F101035168ED
:10B9E00000F108000029DED004F10203402BD0D181
:10B9F000DBE700BF3054002038B50546002832D0C0
:10BA000046F66C23C2F2010393F8BF0002282DD042
:10BA1000D5F81012B1F57A7F28DB47F27030C0F606
:10BA2000050005F0E7F84FF0FF3038BD52F8040F7D
:10BA3000A8420CD101E04FF0000345F2E432C2F21B
:10BA4000000202EB83014FF00000C86438BD03F12F
:10BA500001042346114651F8040FA84211D1ECE726
:10BA60006FF0010038BD4FF0FF3038BD45F2E432D1
:10BA7000C2F20002D36CAB42DDD0084A4FF00103A2
:10BA8000D4E704F10103496802F10802A942D4D0C5
:10BA900004F10203402BC9D1E2E700BF305400207B
:10BAA0002DE9F04105460F4645F2E436C2F20006A4
:10BAB00006F14C0406F5A6764FF0000854F8040B86
:10BAC00040B10368AB4205DBBB4203DC21F0E2F985
:10BAD00044F8048C54F8040B00B908E00168A9424A
:10BAE00005DBB94203DC21F0D5F944F8048CB442FB
:10BAF000E4D1BDE8F08100BF70B50646002867D0EC
:10BB000046F66C23C2F2010393F8BF00022804D06A
:10BB1000D6F81012B1F57A7F03DA32484FF00003FD
:10BB200008E047F2C030C0F6050005F063F84FF0BA
:10BB3000FF3070BD00F1040442680AB1964208D09B
:10BB400003F101052B4604F104006468002C42D186
:10BB500043E0402B09D147F20840C0F605003146CA
:10BB600005F048F84FF0FF3070BD4FF00004C6F804
:10BB7000084246F66C21C2F2010191F8C020344619
:10BB800004F8042F2046B6F8041205F09DFED6F8FE
:10BB9000041201F10201C6F8041245F6C840C2F2CF
:10BBA0000000037853B147F26840C0F6050005F085
:10BBB00021F82046B6F8041205F092FE4FF49040AA
:10BBC000C4F200002146D6F8042210F025FF70BD13
:10BBD0004FF0FF3070BDA642BBD005F10103402BF2
:10BBE000A8D1B8E72C54002008B549F63C20C2F291
:10BBF00001004FF000014FF4006221F0C0F908BDD0
:10BC00002DE9F84349F63C25C2F2010505F1080487
:10BC100005F608064FF001084FF00007A14654F85A
:10BC2000083C7BB154F8040C00F1FF3144F8041CCB
:10BC300041B954F8080C4146AA68EB6806F068FF61
:10BC400044F8087C05F1100504F1100454F8082CA0
:10BC50007AB154F8043C03F1FF3044F8040C40B9C5
:10BC600054F8080C4146AA68EB6806F051FF44F806
:10BC7000087C05F1100504F11004B442CED1BDE8F2
:10BC8000F88300BF30B44FF0000349F63C22C2F203
:10BC900001021D469C58844202DB8C42B8BF9D5075
:10BCA00003F110039C58844205DB01E030BC70476F
:10BCB0008C42B8BF9D5003F11003B3F5006FE9D17A
:10BCC000F4E700BFF0B407464FF000004FF0FF3636
:10BCD00049F63C2CC2F2010C4FEA001454F80C4017
:10BCE000002C08BF0646BC4209D149F63C24C2F2EA
:10BCF000010404EB00146160A260E3601EE000F147
:10BD0000010528464FEA051454F80C40002C08BFE2
:10BD10002E46BC4214D1E8E7B6F1FF3F0CD049F6FD
:10BD20003C25C2F201054FEA061428192F51416043
:10BD30008260C360304601E04FF0FF30F0BC7047D6
:10BD400005F101008028C7D1E6E700BF10B449F62D
:10BD50003C23C2F20103196881420DD049F63C220E
:10BD6000C2F201024FF00103116981421ED105E0C8
:10BD7000116981420CD101E04FF000034FEA031238
:10BD800049F63C21C2F201014FF0000088500AE060
:10BD900003F101010B4602F11002146984420AD139
:10BDA000ECE74FF0FF33184610BC704703F1010376
:10BDB00002F11002DCE701F1010302F11002802B15
:10BDC000D6D1EEE72DE9F843002A25DD00EB020984
:10BDD0006FEA000309EB030202F0010600F101041F
:10BDE0000D4615F8011B1FF07BFA4C4516D1BDE836
:10BDF000F88304F10107B8462E46204616F8011BC9
:10BE00001FF06EFA04F10204697806F10105384664
:10BE10001FF066FA4C45ECD1BDE8F883002EE8D05F
:10BE2000204604F1010415F8011B1FF059FA4C4596
:10BE3000DFD1BDE8F88300BFF0B583B005460F46FB
:10BE400014461E4648F2C003C0F60303586A8542F2
:10BE500006D348F2C001C0F603014A6C954209D3EB
:10BE600047F2A440C0F60500294604F0C3FE4FF097
:10BE7000FF344CE044F25460C0F253002B6883421C
:10BE800009D047F2C840C0F60500294604F0B2FECA
:10BE90006FF001043BE0D5F81021A11991420BD9B4
:10BEA000009647F20450C0F605002946234604F0E8
:10BEB000A1FE6FF002042AE01FF0F0F84FF0F1004D
:10BEC0001FF078F906F58C76AD19284639462246DA
:10BED000FFF778FF1FF0F8F8384621460FF0F6FA22
:10BEE0000646284621460FF0F1FA864208D047F26E
:10BEF0006C50C0F6050004F07DFE6FF0030406E010
:10BF000047F2B050C0F60500214604F073FE20460B
:10BF100003B0F0BD70B582B004461D4648F2C003C0
:10BF2000C0F60303586A844206D348F2C003C0F641
:10BF30000303586C844209D347F2D850C0F6050079
:10BF4000214604F057FE4FF0FF3529E044F25463D8
:10BF5000C0F2530326689E4209D047F2FC50C0F657
:10BF60000500214604F046FE6FF0010518E0D4F804
:10BF70001031681898420CD9009147F23860C0F629
:10BF8000050021461A462B4604F034FE6FF00205E8
:10BF900006E001F58C71104661182A4620F0CCFFAE
:10BFA000284602B070BD00BF10B5044648F2C00379
:10BFB000C0F60303586A844206D348F2C001C0F6B3
:10BFC00003014A6C944209D347F29C60C0F6050015
:10BFD000214604F00FFE4FF0FF3010BD44F25463D1
:10BFE000C0F253032068984209D047F2B860C0F607
:10BFF0000500214604F0FEFD6FF0010010BD47F280
:10C00000EC60C0F6050004F0F5FD1FF047F84FF0B6
:10C01000F1001FF0CFF804F58C70D4F810110FF078
:10C0200055FA014604F583701FF078F947F20C7059
:10C03000C0F6050004F0DEFD1FF046F8B4F8060176
:10C0400010BD00BF10B5044648F2C003C0F603039C
:10C05000586A844206D348F2C001C0F603014A6C14
:10C06000944209D347F22870C0F60500214604F037
:10C07000C1FD4FF0FF3010BD44F25463C0F25303D2
:10C080002068984209D047F24870C0F60500214662
:10C0900004F0B0FD6FF0010010BD47F28070C0F6F3
:10C0A000050004F0A7FD1EF0F9FF4FF0F1001FF0AE
:10C0B00081F8B4F8041104F582704FEA41424FEA66
:10C0C00052411FF02BF947F2A070C0F6050004F0B2
:10C0D00091FD1EF0F9FF4FF0000010BD2DE9F04179
:10C0E000074678B348F2C003C0F603035D6A5E6C8E
:10C0F0002C464FF000024FF4807811E0B4F904119F
:10C10000002906DA04F104003946424621F097F985
:10C1100028B3D4F814312246B3F1FF3F1DD01C469A
:10C12000A54203D804F58C708642E7D847F2C07068
:10C13000C0F605001146D2F8142104F05BFD4FF063
:10C1400000040CE047F62000C0F605004FF00001A7
:10C1500004F050FD4FF0000401E04FF000042046D1
:10C16000BDE8F0812DE9F04F83B081468A469046C4
:10C1700048F2C003C0F603035F6A5E6CFFF7AEFFD0
:10C180000446E0B147F63C00C0F6050049462246A9
:10C1900004F030FD2046FFF755FF10E0386890426C
:10C1A00018D1D7F81411B1F1FF3F06D1D7F81051CB
:10C1B00005F58C73FD18BB460FE00F4603E044F213
:10C1C0005462C0F253023446B742E7DB3D464FF0BB
:10C1D000000B02E03D464FF0000B15F0030F1CBFB3
:10C1E00025F00305043547F67C00C0F60500294616
:10C1F0005A4604F0FFFC08F58C73601B83422ED86E
:10C200004FF6FC72CFF6FF72511B09194FF0000E6A
:10C2100016E054F8047FB7F1FF3F00F0938007E089
:10C2200002F104029342F4D82C46834217D821E04D
:10C2300005F10405A1F1040208468B420FD811460E
:10C24000002B6DD02A68B2F1FF3FF1D12C46724627
:10C250006FEA0E0C9C441CF0040FE1D066E047F638
:10C26000B400C0F605002946324604F0C3FC4FF086
:10C27000000557E047F61410C0F60500214604F00B
:10C28000B9FC1EF00BFF4FF0F1001EF093FFBBF165
:10C29000000F04D00BF58A7021461FF05FF820468E
:10C2A00044F25461C0F253011FF058F804F588704D
:10C2B00041461FF053F804F58A704FF0FF311FF02C
:10C2C0004DF804F582704FF6FF711FF027F804F562
:10C2D00083704FF6FF711FF021F84FF0000001A9A5
:10C2E0001CF0DEFB4FF0000069461CF06DFC04F50D
:10C2F000867001991FF032F804F5847000991FF0E0
:10C300002DF80AF1010204F104004946B2F5807FDC
:10C31000A8BF4FF48072FFF755FD1EF0D5FE01E077
:10C320002C46A7E7284603B0BDE8F08F02F10402CF
:10C3300093427FF679AF54F804CFBCF1FF3F3FF44E
:10C340006FAF75E702F1040254F8047FB7F1FF3FC5
:10C350003FF466AF6CE700BF48F2C003C0F60303CA
:10C36000586A704748F2C003C0F60303586C704720
:10C3700010B5FFF7F7FF0446FFF7EEFF201A10BDD8
:10C3800010B50446A0B948F2C002C0F60302526AD2
:10C3900044F25460C0F253001368834249D047F618
:10C3A0003C10C0F60500114604F024FC224640E093
:10C3B00048F2C003C0F60303586A844206D348F229
:10C3C000C001C0F603014A6C944209D347F69010AD
:10C3D000C0F60500214604F00DFC4FF0000228E0F5
:10C3E00044F25463C0F253032068984209D047F6E0
:10C3F0003C10C0F60500214604F0FCFB4FF00002A3
:10C4000017E0D4F81421B2F1FF3F10D044F2546386
:10C41000C0F25303116899420BD047F6B010C0F632
:10C420000500214604F0E6FB4FF0000201E04FF06A
:10C430000002104610BD00BF38B548F2C002C0F679
:10C440000302536A556C2C46AB4229D244F2546223
:10C45000C0F253021968914225D1D3F81411B1F1F9
:10C46000FF3F13D108E00B6883421FD1D1F814219C
:10C47000B2F1FF3F08D100E01946D1F8103103F5C1
:10C480008C728B180A4614E0114603E044F25460A3
:10C49000C0F253008C42E6D80B464FF0000208E091
:10C4A0004FF0000205E04FF0000202E00B464FF0B3
:10C4B000000213F0030F1CBF23F003030433E91A37
:10C4C0000BD547F60C20C0F605001146D2F8142112
:10C4D00004F090FB4FF0000038BDB1F58C7F14BF25
:10C4E000A1F58C70002038BD10B547F66C20C0F661
:10C4F000050004F07FFB1EF0D1FD4FF0F1001EF0AF
:10C5000059FE47F68C20C0F605004FF0090148F2AD
:10C51000C003C0F603035A6A04F06CFB48F224100F
:10C52000C0F60300406A4FF002011EF089FF044686
:10C53000082840F0B08047F68C20C0F605004FF088
:10C540000A0148F2C002C0F60302926A04F052FBEC
:10C5500048F22411C0F60301886A4FF002011EF070
:10C560006FFF0446082840F0968047F68C20C0F6FE
:10C5700005004FF00B0148F2C004C0F60304E26A64
:10C5800004F038FB48F22413C0F60303D86A4FF0D6
:10C5900002011EF055FF044608287CD147F68C2086
:10C5A000C0F605004FF00C0148F2C002C0F60302CD
:10C5B000126B04F01FFB48F22410C0F60300006B5E
:10C5C0004FF002011EF03CFF0446082863D147F6F5
:10C5D0008C20C0F605004FF00D0148F2C004C0F6F3
:10C5E0000304626B04F006FB48F22411C0F6030159
:10C5F000486B4FF002011EF023FF044608284AD181
:10C6000047F68C20C0F605004FF00E0148F2C0033B
:10C61000C0F603039A6B04F0EDFA48F22412C0F658
:10C620000302906B4FF002011EF00AFF0446082837
:10C6300031D147F68C20C0F605004FF00F0148F2CB
:10C64000C004C0F60304E26B04F0D4FA48F22410EC
:10C65000C0F60300C06B4FF002011EF0F1FE04466D
:10C66000082818D147F68C20C0F605004FF01001BD
:10C6700048F2C003C0F603031A6C04F0BBFA48F298
:10C680002411C0F60301086C4FF002011EF0D8FE21
:10C69000044608280FD047F6C420C0F6050004F071
:10C6A000A9FA1EF011FD47F6E420C0F60500214668
:10C6B00004F0A0FA0FE047F6C420C0F6050004F02D
:10C6C00099FA1EF001FD47F61430C0F6050004F09B
:10C6D00091FA4FF00004204610BD00BF70B594B031
:10C6E0000446816911F8022C02F1FF339E2B00F2FF
:10C6F000F587DFE813F0BF00CB00E900B300D300FB
:10C70000DB00E400F307F307F307F307F307F3078E
:10C71000F307F307F307F307F307F307F30714012E
:10C720001C0125012B01310141013C01FF003701B2
:10C73000F307F307F307F307F3077C068906990667
:10C74000A506F3079001F307F3075F0167014F01A7
:10C750005601710178015D0281018A01F307F30737
:10C76000F307AD06B606BF06D606F307AA009F007C
:10C770005705F307F307F307F307F307F307F30787
:10C780002406290646064B0650065506720677060D
:10C79000F307F307F307F307F307F307F307F307C9
:10C7A000F307F307F307F307F307F307F307F307B9
:10C7B000F307F307F307F307F307F706ED06FE06A3
:10C7C0000307F307F307F307F3070A0714070F0735
:10C7D000F307F307F307F307F307F307F307F30789
:10C7E000F307F307B807BF07F307F307F307F307E8
:10C7F000F307F307F3073F075607F307520734071A
:10C800003A072E074D0745075B07610765076A076B
:10C810007D03920351036703A703C40371078207D3
:10C8200091079E07AB07C907D407D907E307EB07B2
:10C83000FF03E003206845F66843C2F200031A686C
:10C84000824240F0148400F051BF45F66843C2F2C2
:10C8500000031A68002A40F05483EFE345F6A8422B
:10C86000C2F20002106808F079FB4FF00003236069
:10C8700000F05FBF47F63030C0F60500226804F0D4
:10C88000B9F94FF00000206000F053BF45F6A84210
:10C89000C2F200021368236000F04BBF45F6B840B7
:10C8A000C2F200000168216000F043BF20686168A7
:10C8B000A268E36806F068F9206000F03ABF40F231
:10C8C000EA73236000F035BF2068FFF707FC0246DB
:10C8D00058B14FF043004FF000010B4606F054F9F9
:10C8E0004FF00001216000F024BF4FF0FF302060C6
:10C8F00000F01FBF2068FFF7F1FB034650B100F5C1
:10C900008C70D3F81011FCF749F94FF00001216049
:10C9100000F00FBF4FF0FF30206000F00ABF20682A
:10C920006168A268FFF71EFC206000F002BF20686B
:10C930006168A268E368FFF77FFA206000F0F9BE43
:10C940002068FFF731FB206000F0F3BE2068FFF79E
:10C95000C5FB206000F0EDBE2068FFF711FD2060F0
:10C9600000F0E7BEFFF768FD206000F0E2BEFFF7D1
:10C97000F3FC206000F0DDBE4FF044004FF00101F9
:10C980004FF00002134606F0FFF84FF0000222605D
:10C9900000F0CFBE2068FBF75BFD84ED000A00F0DD
:10C9A000C8BE206800F10400FBF752FD84ED000AC8
:10C9B00000F0BFBE206894ED1A0AFBF7FFFB206071
:10C9C00000F0B7BE206800F1040094ED1A0AFBF7EE
:10C9D000F5FB206000F0ADBE20686168FBF772FBDC
:10C9E000206000F0A6BE206800F104006168FBF73B
:10C9F00069FB206000F09DBE20686168A268E36862
:10CA0000FFF760F9206000F094BE2068FFF79EF900
:10CA1000206000F08EBE216801F1FF33172B00F279
:10CA2000BF80DFE813F07C002C00360040002200BD
:10CA300018005E006800720054004A00BD00BD008E
:10CA4000BD00BD00BD00BD00BD00BD0090009A004E
:10CA5000A300AC00B4006368B64890F8BB1019603E
:10CA60004FF00002226000F064BE6368B14890F8A5
:10CA7000BA1019604FF00002226000F05ABE6368DD
:10CA8000AC4890F8B71019604FF00002226000F037
:10CA900050BE6368A74890F8B81019604FF00002C4
:10CAA000226000F046BE6368A24890F8B910196091
:10CAB0004FF00002226000F03CBE63689D4890F891
:10CAC000C01019604FF00002226000F032BE6368AF
:10CAD000984890F8BF1019604FF00002226000F0F3
:10CAE00028BE6368934890F8BC1019604FF00002AC
:10CAF000226000F01EBE63688E4890F8BD10196079
:10CB00004FF00002226000F014BE6368894890F87C
:10CB1000BE1019604FF00002226000F00ABE864D80
:10CB2000284620F04CFC00F1010260682946B2F56D
:10CB3000807F28BF4FF4807220F0FEF94FF0000391
:10CB4000236000F0F6BD63687A4890F8B51019606C
:10CB50004FF00002226000F0ECBD63687548017E72
:10CB600019604FF00002226000F0E3BD6368714875
:10CB7000017F19604FF00002226000F0DABD6068AA
:10CB80006E4901604FF00002226000F0D2BD606883
:10CB90006B490A7802604FF00003236000F0C9BDC2
:10CBA000684804F027F84FF0FF30206000F0C1BD66
:10CBB000216801F1FF32162A00F2E380DFE812F06B
:10CBC000C400350046005700260017008600970075
:10CBD000A80077006800E100E100E100E100E10069
:10CBE000E100E100E100E100E100E100DA0061685C
:10CBF0000A6846F66C23C2F2010383F8BB200EF0EC
:10CC0000B5FA4FF00000206000F093BD61680A683B
:10CC100046F66C23C2F2010383F8BA200EF0A6FA9E
:10CC20004FF00000206000F084BD61680A6846F69D
:10CC30006C23C2F2010383F8B7200EF097FA0FF0CD
:10CC400049FC4FF00000206000F073BD61680A6885
:10CC500046F66C23C2F2010383F8B8200EF086FA80
:10CC60000FF038FC4FF00000206000F062BD6168FA
:10CC70000A6846F66C23C2F2010383F8B9200EF06D
:10CC800075FA0FF027FC4FF00000206000F051BD56
:10CC900061680A6846F66C23C2F2010383F8C0207B
:10CCA0000EF064FA4FF00000206000F042BD6168B1
:10CCB0000A6846F66C23C2F2010383F8BF200EF027
:10CCC00055FA4FF00000206000F033BD61680A683B
:10CCD00046F66C23C2F2010383F8BC200EF046FA3C
:10CCE0000FF012FD4FF00000206000F022BD6168DF
:10CCF0000A6846F66C23C2F2010383F8BD200EF0E9
:10CD000035FA0FF001FD4FF00000206000F011BD7A
:10CD100061680A6846F66C23C2F2010383F8BE20FC
:10CD20000EF024FA0FF0F0FC4FF00000206000F04D
:10CD300000BD00BF6C6A0120386B012038900120D3
:10CD4000C85C0020387B05086568284620F037FB62
:10CD500000F10102B8482946B2F5807F28BF4FF4A0
:10CD6000807220F0E9F80EF001FA4FF00001216026
:10CD700000F0DFBC0EF0FAF94FF00000206000F088
:10CD8000D8BC47F63830C0F6050003F033FF4FF04B
:10CD9000FF32226000F0CDBC23680C2B04DD4FF085
:10CDA000FF31216000F0C5BC46F66C22C2F20102E0
:10CDB00002EB8301886A636818604FF0000222600A
:10CDC00000F0B7BC23680C2B04DD4FF0FF3020606F
:10CDD00000F0AFBC46F66C21C2F2010101EB83000A
:10CDE000826E63681A604FF00001216000F0A1BC00
:10CDF00023680C2B04DD4FF0FF32226000F099BC59
:10CE000046F66C22C2F2010202EB8300A16E81623F
:10CE10004FF00003236000F08CBC20680C2804DD78
:10CE20004FF0FF31216000F084BCA16E46F66C2308
:10CE3000C2F2010303EB800291664FF00000206014
:10CE400000F077BC21680C2904DD4FF0FF3222602E
:10CE500000F06FBC01F168014BF25450C2F20100C6
:10CE600030F8112093B207EE903A6168B8EE670A85
:10CE700081ED000A4FF00000206000F05ABC2068ED
:10CE800080EAE072A2EBE0720C2A04DD4FF0FF337F
:10CE9000236000F04EBC0028B8BF0D304BF2545355
:10CEA000C2F2010353F82010606801604FF00002E5
:10CEB000226000F03EBC206880EAE071A1EBE071E6
:10CEC0000C2904DD4FF0FF33236000F032BC002852
:10CED000B8BF0D3000F10C004BF25452C2F2010207
:10CEE00002EB80035868616808604FF0000222601E
:10CEF00000F01FBC4BF25450C2F20100206000F061
:10CF000018BC45F66840C2F20000416800295FD0B5
:10CF100045F66843C2F200039A68002A5BD045F6E2
:10CF20006840C2F20000C168002957D045F6684346
:10CF3000C2F200031A69002A53D045F66840C2F2D3
:10CF40000000416900294FD045F66843C2F2000352
:10CF50009A69002A4BD045F66840C2F20000C169C8
:10CF6000002947D045F66843C2F200031A6A002A36
:10CF700043D045F66840C2F20000416A00293FD024
:10CF800045F66843C2F200039A6A002A3BD045F690
:10CF90006840C2F20000C16AC1B345F66843C2F2FC
:10CFA00000031A6BAAB345F66840C2F20000416B59
:10CFB00091B345F66843C2F200039A6B7AB345F623
:10CFC0006840C2F20000C16B61BB4FF00F0537E053
:10CFD0004FF0010534E04FF0020531E04FF003055A
:10CFE0002EE04FF004052BE04FF0050528E04FF050
:10CFF000060525E04FF0070522E04FF008051FE089
:10D000004FF009051CE04FF00A0519E04FF00B0541
:10D0100016E04FF00C0513E04FF00D0510E04FF057
:10D020000E050DE047F67430C0F6050003F0E2FD92
:10D030004FF0000323607CE3386B01204FF00005C4
:10D0400020681FF01FFF45F66842C2F2000242F856
:10D05000250050B947F6AC30C0F60500216803F052
:10D06000C9FD4FF00000206063E3206061E345F6F6
:10D070006841C2F200014B68834265D045F66842C0
:10D08000C2F200029168814261D045F66843C2F263
:10D090000003DA6882425DD045F66841C2F20001C1
:10D0A0000B69834259D045F66842C2F200025169C9
:10D0B000814255D045F66843C2F200039A69824224
:10D0C00051D045F66841C2F20001CB6983424DD090
:10D0D00045F66842C2F20002116A814249D045F623
:10D0E0006843C2F200035A6A824245D045F668415D
:10D0F000C2F200018B6A834241D045F66842C2F217
:10D100000002D16A81423DD045F66843C2F2000375
:10D110001A6B824239D045F66841C2F200014B6B6E
:10D12000834235D045F66842C2F20002916B8142DB
:10D1300031D045F66843C2F20003DA6B824208BF81
:10D140000F2500F0D58229E04FF00105D0E24FF025
:10D150000205CDE24FF00305CAE24FF00405C7E235
:10D160004FF00505C4E24FF00605C1E24FF0070598
:10D17000BEE24FF00805BBE24FF00905B8E24FF000
:10D180000A05B5E24FF00B05B2E24FF00C05AFE235
:10D190004FF00D05ACE24FF00E05A9E24FF0FF3065
:10D1A0002060C6E22368012B01D0032B09D147F68A
:10D1B000D830C0F6050003F01DFD4FF0FF312160AF
:10D1C000B7E233B946F21000C4F202001CF0A4F931
:10D1D00007E0022B05D146F2B800C4F202001CF0B1
:10D1E0009BF9A26809924FF0040110914FF00100E1
:10D1F00011904FF0000312934FF400520D924FF430
:10D2000080610B91E06808B90E9002E04FF48073E2
:10D210000E93226832BB40F63402C4F2000206923A
:10D220004FF0000113914FF400600C900A914FF4FD
:10D2300040350F954FF0806305934FF04002089200
:10D240006168079146F21005C4F20205284605A957
:10D250001CF05CFA28464FF010014FF001021CF060
:10D2600023FB28E0022A40F0518240F63C05C4F23C
:10D27000000506954FF0000313934FF400620C92E3
:10D280000A934FF440310F914FF0806005904FF0BA
:10D29000400508956368079346F2B805C4F2020595
:10D2A000284605A91CF032FA28464FF010014FF02D
:10D2B00001021CF0F9FA206820B94FF00B038DF839
:10D2C000103004E0022804BF2F208DF810004FF02A
:10D2D00000028DF811208DF812204FF001018DF819
:10D2E000131004A81AF094F9206880B946F21004CB
:10D2F000C4F2020420464FF02001C1F200011CF0EC
:10D30000B7FA20464FF001011CF03EFA0FE0022868
:10D310000DD146F2B804C4F2020420464FF0205169
:10D320001CF0A6FA20464FF001011CF02DFA4FF434
:10D330000063C4F200034FF000025A62F9E1206872
:10D34000FCF744FC2060F4E12068D0F80C32102B8C
:10D3500013DCD0F81022B2F57A7F04DBD0F8141277
:10D36000B1F57A7F09DA47F64040C0F6050003F0D0
:10D3700041FC4FF0FF302060DBE1FDF78FF82060CB
:10D38000D7E12068FDF7DCF82060D2E12068FDF7E6
:10D3900057F92060CDE12068FDF774FE2060C8E1F8
:10D3A0002068D0F80C32102B13DCD0F81022B2F524
:10D3B0007A7F04DBD0F81412B1F57A7F09DA47F6E8
:10D3C000A440C0F6050003F015FC4FF0FF302060CC
:10D3D000AFE1FEF7BFFA2060ABE12068FEF70CFB7F
:10D3E0002060A6E12068FEF787FB2060A1E145F6FA
:10D3F000C042C2F20002106800F1040021686268B5
:10D40000FBF7EAFC206094E145F6C045C2F2000556
:10D41000286821686268A368E568009500F1040047
:10D42000FBF75AFD206084E145F6C041C2F20001DD
:10D43000086800F104002168FBF750FC206078E1E7
:10D4400020686168A268E368FBF7D2FE206070E1A3
:10D450004FF0000021681BF023FB4FF00003236016
:10D4600067E14FF0000021681BF0AEFB4FF00001B8
:10D4700021605EE14FF001001BF064F84FF0000006
:10D480001BF030F94FF0000021461BF097FA2060A6
:10D490004FF001001BF026F94FF000001BF052F88E
:10D4A00047E14FF001001BF04DF84FF000001BF07A
:10D4B00019F94FF0000021461BF01EFB20604FF0D1
:10D4C00001001BF00FF94FF000001BF03BF830E1BA
:10D4D000216845F66043C2F2000319604FF0000274
:10D4E000226026E145F66040C2F20000016821603A
:10D4F0001FE1206811F0B6FC20601AE1206811F0ED
:10D50000EFFC4FF00000206013E1206811F04AFCAE
:10D5100020600EE1206811F0D1FB206009E1216854
:10D52000012908D002290DD04AF26423C2F2010376
:10D530001A682260FDE04AF24423C2F201031A682D
:10D540002260F6E04AF24820C2F201000168216040
:10D55000EFE094F9000014F045FD2060E9E0206858
:10D56000616816F07FFE2060E3E0206817F05AFB48
:10D570002060DEE02068616817F0B6F82060D8E02F
:10D5800020686168A268E36817F0EEFB2060D0E0D5
:10D59000206813F0C7FC2060CBE017F0E1FE2060AC
:10D5A000C7E0206818F0D6FC2060C2E020686168FF
:10D5B0000EF09AFA2060BCE00EF0BCF82060B8E0F3
:10D5C00020680EF013F82060B3E045F60C40C2F27C
:10D5D000010001682160ACE0206862682389A189AC
:10D5E00000914FF0000501954FF0010102914FF0BD
:10D5F000020103F05DFC25609BE0206862682389DE
:10D60000A58900954FF00005019502954FF00201A4
:10D6100003F04EFC25608CE02088A1882289A38934
:10D620004FF00C05009503F067FC4FF000032360FA
:10D630007FE02088A1882289A3894FF00805009502
:10D6400003F05AFC4FF00001216072E02088A188AD
:10D650002289A3894FF01005009503F04DFC4FF08F
:10D660000000206065E045F63842C2F20002106812
:10D6700020605EE020686168A268E36807F056FBFE
:10D680004FF00003236054E02068616845F664426F
:10D69000C2F20002126810F0FDFD206049E020682F
:10D6A00011F006F8206044E0206845F66443C2F2B9
:10D6B0000003196810F012FE20603AE020686168EB
:10D6C00011F04EF84FF00002226032E020686168ED
:10D6D00011F074F94FF0000121602AE047F608507C
:10D6E000C0F60500114603F085FA22E04FF0000570
:10D6F00045F66846C2F2000656F825001FF0CAFB40
:10D700004FF0000146F82510216012E04FF00001B3
:10D7100013914FF400600C900A914FF440330F9333
:10D720004FF0806205924FF04001089160680790C9
:10D73000C1E514B070BD00BF10B572B646F210005E
:10D74000C4F2020048F22001C1F200011CF0CEF840
:10D75000C0B14FF40063C4F200034FF000045C63F7
:10D7600046F21000C4F2020048F22001C1F20001AA
:10D770001CF0EEF84FF02B004FF00101224623463B
:10D7800005F0C6F962B610BD10B572B646F2B80023
:10D79000C4F202004FF40041C2F600011CF0A6F8EA
:10D7A000C0B14FF40063C4F200034FF00004DC6327
:10D7B00046F2B800C4F202004FF40041C2F6000184
:10D7C0001CF0C6F84FF02D004FF001012246234611
:10D7D00005F09EF962B610BD2DE9F04F95B072B616
:10D7E0000EF08AFD10A81AF017FA44F6D353C1F2CE
:10D7F0006203119AA3FB02104FEA901101F1FF346A
:10D800004EF21006CEF2000674604FF46D45CEF273
:10D8100000054FF0F00785F823704FF00005B56064
:10D820004FF00703336047F63C50C0F6050047F65B
:10D830009C51C0F6050140F2EA7247F6A453C0F6C7
:10D84000050303F0D7F947F6A850C0F60500119973
:10D8500040F29402C2F200021268129B03F0CAF96D
:10D8600047F60460C0F6050003F0C4F94FF032003B
:10D870008DF814008DF815504FF001048DF8164006
:10D880008DF8174005A819F0C3FE4FF00800214697
:10D890001AF094FA08A81CF04FFB4FF05308ADF8AB
:10D8A00020804FF07C010991ADF82850ADF822504E
:10D8B0004FF44066C4F20006304608A91CF0E6FAB0
:10D8C0003046214622461CF07BFF304621461CF0A4
:10D8D000A1FB4FF46147CEF200074FF480237B6039
:10D8E0004FF0020021461AF069FA05A81CF024FB4B
:10D8F000ADF8145040F2473BCDF818B0ADF81C50CD
:10D900008DF81E50ADF816504FF48066C4F2000634
:10D91000304605A91CF0BAFA304621461CF07AFBC5
:10D920004FF07009ADF82090ADF822404FF002079B
:10D93000ADF82C700A95304608A91CF07BFB3046E8
:10D940004FF008011CF000FD0A95304608A91CF0B4
