:020000040800F2
:100000000000032095F50208393D01084D3D010827
:10001000613D0108753D0108893D010800000000AF
:100020000000000000000000000000009D3D0108ED
:10003000B13D010800000000B53D0108C53D0108C3
:10004000E1F50208E1F50208E1F50208E1F5020830
:10005000A5E50108E1F50208A9020108E502010889
:100060000903010869030108C903010841F70008F1
:10007000E1F50208E1F502080DEB01089D420108D7
:100080002D0402088DEA0108E1F50208E1F50208F5
:10009000E1F50208E1F50208E1F50208E9010108CD
:1000A000E1F50208E1F50208E1F50208E1F50208D0
:1000B00095D50108E1F50208E1F50208E1F502082D
:1000C000E1F50208E1F50208E1F50208E1F50208B0
:1000D000E1F50208E1F50208E1F50208E1F50208A0
:1000E00045010108BDFF0008E1F50208E1F502083D
:1000F000E1F50208E1F50208E1F5020891F70008D0
:10010000E1F50208E1F5020891FE0008E1F50208B8
:10011000E1F50208E1F50208E1F50208E1F502085F
:10012000C9CE0108E1F502088DEB0108E1F50208EE
:10013000E1F50208E1F50208E1F50208E1F502083F
:10014000E1F50208E1F50208E1F50208E1F502082F
:10015000E1F50208E1F5020835EA0108E1F50208D7
:10016000E1F50208E1F50208E1F50208E1F502080F
:10017000E1F50208E1F50208E1F50208E1F50208FF
:08018000E1F50208E1F50208B7
:1080000010B5054C237833B9044810B10448AFF3D8
:1080100000800121217010BD6C5200200000000082
:108020006806060808B5064B1BB106480649AFF3BB
:1080300000800648016811B1054A02B1904708BDA9
:1080400000000000680606087052002068520020F8
:1080500000000000154B002B08BF134B9D46A3F5F5
:10806000803A00218B460F461348144A121A27F013
:108070009EFB0F4B002B00D098470E4B002B00D0DF
:1080800098470020002104460D4600200C4900229C
:10809000002327F0A7FA27F0E7FA2046294607F041
:1080A0009FFB27F0B5FA00BF0000080000000000A9
:1080B00000000000000000006C5200204CF3012082
:1080C0003DF6020830B585B00C46032836D801A825
:1080D00024F04AFBB4F5FA7F0DDB4FF00302ADF854
:1080E000042046F64073C0F2401393FBF4F000F115
:1080F000FF3102910AE040F28F63ADF804304CF298
:10810000503090FBF4F101F1FF3502954FF000057E
:10811000ADF80C508DF80E50ADF806504FF40065D8
:10812000C4F20005284601A924F0C8FA28464FF4F5
:10813000F0514FF0010224F05BFF3CE0A0F104009D
:10814000032836D801A824F00FFBB4F5FA7F0DDD23
:108150004FF00305ADF8045046F64073C0F24013EB
:1081600093FBF4F000F1FF3102910AE040F28F63DB
:10817000ADF804304CF2503090FBF4F101F1FF32D5
:1081800002924FF00005ADF80C508DF80E50ADF88E
:1081900006504FF48065C4F20005284601A924F07A
:1081A0008DFA28464FF4F0514FF0010224F020FFE1
:1081B00001E04FF0FF34204605B030BD10B586B069
:1081C0004FF06003ADF804304FF00101ADF8061038
:1081D0004FF00002ADF81020072800F23281DFE8EE
:1081E00010F008002D00520077009C00C100E6004E
:1081F0000B014FF40064C4F20004E26A02F10102D0
:1082000003EE102AF8EE433A23EE804ADFED8F4A60
:1082100084EE245AF7EE005A35EE656AFCEEC66A23
:10822000CDED036A204601A924F01CFB20464FF047
:10823000080124F0A1FC4FF0000004E14FF40064B9
:10824000C4F20004E16A01F1010107EE901AF8EEB0
:10825000670A20EE800A9FED7D7A80EE071AF7EE1E
:10826000001A31EE612AFCEEC22ACDED032A204627
:1082700001A924F03DFB20464FF0080124F086FCC4
:108280004FF00000DFE04FF40064C4F20004E36A42
:1082900003F1010303EE103AF8EE433A23EE804A6D
:1082A000DFED6A4A84EE245AF7EE005A35EE656A2D
:1082B000FCEEC66ACDED036A204601A924F066FBF8
:1082C00020464FF0080124F06DFC4FF00000BAE0AA
:1082D0004FF40064C4F20004E06A00F1010007EE0C
:1082E000900AF8EE670A20EE800A9FED587A80EE39
:1082F000071AF7EE001A31EE612AFCEEC22ACDED24
:10830000032A204601A924F08DFB20464FF00801E6
:1083100024F052FC4FF0000095E04FF48064C4F26A
:108320000004E26A02F1010203EE102AF8EE433A79
:1083300023EE804ADFED454A84EE245AF7EE005AD8
:1083400035EE656AFCEEC66ACDED036A204601A9EA
:1083500024F088FA20464FF0080124F00DFC4FF07D
:10836000000070E04FF48064C4F20004E16A01F19F
:10837000010107EE901AF8EE670A20EE800A9FEDE1
:10838000337A80EE071AF7EE001A31EE612AFCEE1E
:10839000C22ACDED032A204601A924F0A9FA2046DD
:1083A0004FF0080124F0F2FB4FF000004BE04FF4D7
:1083B0008064C4F20004E36A03F1010303EE103A9F
:1083C000F8EE433A23EE804ADFED204A84EE245A49
:1083D000F7EE005A35EE656AFCEEC66ACDED036A2B
:1083E000204601A924F0D2FA20464FF0080124F0DB
:1083F000D9FB4FF0000026E04FF48064C4F2000483
:10840000E06A00F1010007EE900AF8EE670A20EE3C
:10841000800A9FED0E7A80EE071AF7EE001A31EE11
:10842000612AFCEEC22ACDED032A204601A924F0E0
:10843000F9FA20464FF0080124F0BEFB4FF000008F
:1084400001E04FF0FF3006B010BD00BF0000C84291
:1084500070B507283DD8DFE800F0040B121920277B
:108460002E354FF40061C4F20001486BCE6A34E04F
:108470004FF40063C4F20003986BDE6A2DE04FF402
:108480000066C4F20006F06BF66A26E04FF4006561
:10849000C4F20005286CEE6A1FE04FF48064C4F259
:1084A0000004606BE66A18E04FF48062C4F20002D8
:1084B000906BD66A11E04FF48061C4F20001C86B82
:1084C000CE6A0AE04FF48063C4F20003186CDE6ADF
:1084D00003E04FF0FF304FF0010626F0CDF94FF0EA
:1084E00000024FF00003C4F2590326F03BFA4FF0AC
:1084F00000024FF00003C3F6F07326F081F8044643
:108500000D4606F1010026F0B7F902460B4620465B
:10851000294626F051FB26F007FD00EE100A70BD3B
:108520002DE9F04F85B046F20814C2F201044FF075
:10853000100727604FF48059C4F20209C4F8049070
:108540004FF08002A2604FF00005E56049F2C013D1
:10855000C0F605036362009501954FF0010602968F
:1085600038464FF002014A464FF080030AF044FEBD
:108570004FF00408C4F810804FF0070161614FF01C
:108580008002A2614FF0170AC4F81CA0276200976E
:10859000404653460AF054FEA762C4F82C904FF4AC
:1085A000807BC4F830B0656349F2D410C0F6050092
:1085B000E06400950195029638464FF002014A4664
:1085C0005B460AF019FEC4F838804FF00801E163F9
:1085D000C4F840B0C4F844A0A764009740465A4687
:1085E00053460AF02DFE2765C4F854904FF4007BE3
:1085F000C4F858B0E56549F2E813C0F605036367AF
:1086000000950195029638464FF002014A465B46B6
:108610000AF0F2FDC4F860804FF009016166C4F809
:1086200068B0C4F86CA04FF0080222670092404680
:108630005A4653460AF004FEA767C4F87C904FF4EC
:10864000806BC4F880B0C4F8845049F2F410C0F6CE
:108650000500C4F89C0000950195029638464FF03D
:1086600002014A465B460AF0C7FDC4F888804FF015
:108670000A01C4F88C10C4F890B04FF02803C4F875
:1086800094304FF00802C4F89820009240465A46B1
:108690000AF0D6FD4FF00209C4F8A090DA46C4F201
:1086A000020AC4F8A4A04FF08001C4F8A810C4F8CE
:1086B000AC5049F20023C0F60503C4F8C43000955D
:1086C000019502964846494652464FF080030AF00B
:1086D00093FDC4F8C890C4F8CCA04FF04003C4F890
:1086E000D030C4F8D45049F20420C0F60500C4F8D4
:1086F000EC000095019502964846494652460AF01C
:108700007BFDC4F8F090C4F8F4A04FF02003C4F847
:10871000F830C4F8FC5049F20822C0F60502C4F84B
:1087200014210095019502964846494652460AF0A2
:1087300063FDC4F818814FF4006AC4F2020AC4F859
:108740001CA14FF48053C4F82031C4F8245149F2DD
:108750000C21C0F60501C4F83C1100950195029664
:108760004046494652460AF047FDC4F84081C4F8E5
:1087700044A14FF40063C4F84831C4F84C5149F2A5
:108780001020C0F60500C4F864010095019502961A
:108790004046494652460AF02FFDC4F86881C4F8A5
:1087A0006CA1C4F870B1C4F8745149F21423C0F636
:1087B0000503C4F88C310095019502964046494660
:1087C00052465B460AF018FD4FF00802C4F89021AB
:1087D0004FF44068C4F20208C4F894814FF080015D
:1087E000C4F89811C4F89C6149F21C20C0F6050039
:1087F000C4F8B401009601950296104649464246D7
:108800004FF080030AF0F8FC4FF00802C4F8B821DA
:10881000C4F8BC81C4F8C071C4F8C46149F22C2307
:10882000C0F60503C4F8DC310096019502961046A7
:10883000494642463B460AF0DFFC49F23C20C0F67E
:1088400005004FF00C010AF079FB284605B0BDE8A1
:10885000F08F00BF08B50B2823D800EB800246F24A
:108860000813C2F2010303EBC201CB6853B946F20D
:108870000813C2F2010303EBC2025068118921F010
:10888000CBFC08BD012B0FD100EB800046F2081293
:10889000C2F2010202EBC0014868098921F0C6FC5E
:1088A00008BD4FF0FF3008BD6FF0010008BD00BFEC
:1088B00010B50C460B280DD800EB800046F20813CB
:1088C000C2F2010303EBC0014868098922460AF09D
:1088D000FFFC01E04FF0FF34204610BD10B582B020
:1088E0000B2824D891B100EB800146F20814C2F2A3
:1088F000010404EBC104208AA18A228BA38B248C5F
:1089000000940AF09DFC4FF0000012E000EB8000A4
:1089100046F20813C2F2010303EBC003188A998AD6
:108920001A8B9B8B0AF0B2FC4FF0000001E04FF075
:10893000FF3002B010BD00BF30B4002A14DD0B6858
:10894000984213DD4FF0000312F0010F05D112E041
:1089500051F8045F854215DB0AE003F10104234668
:108960009442F5D1134603E0134601E04FF00003B3
:10897000184630BC704703F1010351F8044F84429C
:10898000EBDBF5E704F1010351F8044F8442E4DB2B
:10899000EEE700BF38B5C41046BFE4435525D525E2
:1089A000204640F20401C2F200014FF00802FFF736
:1089B000C3FF072802DD85F07F0038BD4FEA0013B2
:1089C0000128D2BFC4F3430044FA00F000F00F00C6
:1089D0001843684038BD00BF80F055034FEA0310CC
:1089E000C0B2C3F3021212B1012A06D102E000F1B3
:1089F000080008E000F5847005E000F5847002F1DD
:108A0000FF3100FA01F013F0800F08BF40427047B9
:108A100038B5801046BF40427F25FF2541F6DF7400
:108A2000A042B8BF044604F12104204609494FF092
:108A30000802FFF781FF072802DD85F07F0038BDBF
:108A400000F1010344FA03F404F00F0444EA0010B7
:108A5000684038BD240000206FEA000000F00F03DA
:108A60004FEAC30101F18401C0F3021201FA02F1DD
:108A700010F0800F14BFC1F18400A1F18400704791
:108A80002DE9F84389460E684FEA560619688E426A
:108A90002DD81E602EB302EB060814466FEA0203BF
:108AA00008EB030202F00106054635F9020BFFF759
:108AB000AFFF04F8010B44451DD112E02F4637F9F2
:108AC000020BFFF7A5FF264606F8010BB5F90200D9
:108AD00007F10205FFF79CFF607006F101044445B1
:108AE000ECD1D9F800004FEA5000BDE8F8834FF010
:108AF0000000BDE8F883002EE0D035F9020BFFF747
:108B000087FF04F8010B4445D8D1EAE72DE9F84383
:108B1000894609684FEA41061C68A6422CD81E60A7
:108B200021B300EB0108154604466FEA000308EB89
:108B3000030000F0010614F8010BFFF78DFF25F884
:108B4000020B44451CD111E0274617F8010BFFF733
:108B500083FF2E4626F8020B607807F10104FFF729
:108B60007BFF688006F102054445EDD1D9F800206D
:108B70004FEA4200BDE8F8834FF00000BDE8F883FB
:108B8000002EE1D014F8010BFFF766FF25F8020B69
:108B90004445D9D1EAE700BF2DE9F843B2F1000915
:108BA0002ADD01EB090805460C466FEA010308EBD4
:108BB000030000F0010614F8010BFFF74DFFA0F5CC
:108BC000004125F8021B44451AD115E0274617F845
:108BD000010BFFF741FFA0F500432E4626F8023BAC
:108BE000607807F10104FFF737FFA0F500406880C7
:108BF00006F102054445E9D14FEA4900BDE8F88392
:108C0000002EE3D014F8010BFFF726FFA0F5004279
:108C100025F8022B4445D9D1EEE700BF2DE9F843F2
:108C2000B2F1000924DD01EB090805460C466FEAA4
:108C3000010308EB030000F0010614F8010BFFF735
:108C4000CBFE25F8020B444516D111E0274617F854
:108C5000010BFFF7C1FE2E4626F8020B607807F1E4
:108C60000104FFF7B9FE688006F102054445EDD125
:108C70004FEA4900BDE8F883002EE7D014F8010B55
:108C8000FFF7AAFE25F8020B4445DFD1F0E700BF4D
:108C900008B540B14FF48060C4F202004FF080018B
:108CA00021F0D0FA08BD4FF48060C4F202004FF00A
:108CB000800121F0C5FA08BD38B545F28824C2F21A
:108CC000000449F26420C0F60500216862680AF0D9
:108CD00035F94FF00000FFF7DBFF46F28805C4F2DC
:108CE000020528464FF0000123F066F9284623F0DC
:108CF0002BF823F061FA4FF00003A36063604FF09C
:108D00000100E06038BD00BF38B545F28823C2F2EB
:108D100000035868B0F5207F17DB45F28824C2F2C3
:108D200000042268216946F2E820C2F201005118CD
:108D30004FF42072FFF730FF6068A0F52073636086
:108D4000226902F52071216138BD00281DDD46F23F
:108D5000E825C2F2010528464FF400414FF4207285
:108D60000AF0E8FE45F28824C2F200042168236973
:108D70002846C9186268FFF70FFF206962688118EA
:108D800021614FF00003636038BD46F2E820C2F273
:108D900001004FF400414FF420720AF0CBFE45F27F
:108DA0008821C2F200014FF00102CA60FFF784FF80
:108DB00038BD00BF38B545F28823C2F200035868B9
:108DC000B0F5207F14DB45F28824C2F2000422684B
:108DD00021691E4851184FF42072FFF7DDFE6068CC
:108DE000A0F520736360226902F52071216138BD0E
:108DF00000281ADD154D28464FF400414FF420722B
:108E00000AF098FE45F28824C2F200042168236922
:108E10002846C9186268FFF7BFFE2069626881189A
:108E200021614FF00003636038BD08484FF40041F2
:108E30004FF420720AF07EFE45F28821C2F2000152
:108E40004FF00102CA60FFF737FF38BDE867012025
:108E50002DE9F04196B049F28C20C0F605000AF0E9
:108E60006DF84FF0010545F28823C2F200039D60C2
:108E70004FF0000446F6F840C2F20100046046F6E6
:108E8000F041C2F201010C6046F60052C2F201024A
:108E9000146046F28806C4F202063046214623F0EA
:108EA0008BF8304622F050FF23F086F94FF0020095
:108EB000294621F065FB4FF0800701978DF8085097
:108EC0008DF80A404FF002038DF809308DF80B50F1
:108ED0004FF48060C4F2020001A921F0CFF84FF0F6
:108EE000100701974FF003008DF808008DF80B4034
:108EF0002046C4F2020001A921F0C0F84FF004019D
:108F0000129113941594204612A923F063F94FF09F
:108F10006062039247F20C43C4F20003049346F2EA
:108F2000E820C2F2010005904FF0400106914FF495
:108F3000A062079208944FF4806309934FF4006095
:108F40000A904FF40058CDF82C804FF480710C91AA
:108F50004FF400320D920E940F95109411943046F8
:108F600003A922F0EBFF08FA07F3304643F47461DB
:108F700023F096F830464FF09E012A4623F0ACF8D5
:108F80008DF800708DF801408DF802408DF8035087
:108F9000684620F055FF2046294623F03DF920463B
:108FA000294623F0DFF93046294623F005F816B0AC
:108FB000BDE8F08138B505460C4649F29C20C0F664
:108FC00005002946224609F0B9FF45F28823C2F27E
:108FD00000031D605C604FF000021A61DA60B4F5B6
:108FE000A06F15DD46F2E820C2F2010029464FF4D9
:108FF000A062FFF7D1FD45F28820C2F2000041686F
:10900000A1F5A0634360026902F5A06101611CE063
:10901000002C1ADD46F2E825C2F2010528464FF47D
:1090200000414FF4A0620AF085FD45F28824C2F2A7
:109030000004284621686268FFF7AEFD2069616878
:10904000431823614FF000026260FFF701FF4FF009
:109050000100FFF71DFE38BD2DE9F84F814648B3EA
:1090600046F60455C2F201054FF000042646A84614
:109070004FF00E07A246AB46D5F8EC3173B104EBC6
:10908000C40008EB800101F5E67049463A4626F037
:10909000B7FD18B9C5F8ECA106F1010604F1010409
:1090A00005F12405D5F8EC31DBB10BE02EB114F05D
:1090B000BFFC04E04FF0FF3601E06FF003063046DE
:1090C000BDE8F88F04EBC40008EB800101F5E67001
:1090D00049463A4626F094FD18B9C5F8ECA106F1C8
:1090E000010604F1010405F12405B4F5807FC2D125
:1090F000DCE700BF2DE9F84F8B468146002839D0C8
:1091000000293AD046F60454C2F201044FF000059B
:10911000AA46A0464FF00E07D4F8EC31DBB105EBC0
:10912000C50008EB800101F5E67049463A4626F095
:1091300067FD80B905EBC50208EB820303F5ED700E
:1091400059463A4626F05CFD28B94FF00000C4F8B5
:10915000EC010AF1010A05F101052E4604F124048F
:10916000D4F8EC1169B310E0BAF1000F08D014F094
:109170005FFC07E04FF0FF3A04E04FF0FF3A01E0F8
:109180006FF0030A5046BDE8F88F05EBC50208EB07
:10919000820303F5E67049463A4626F031FD80B970
:1091A00005EBC50608EB860000F5ED7059463A461A
:1091B00026F026FD28B94FF00001C4F8EC110AF1A1
:1091C000010A05F1010504F12404B5F5807FA3D15E
:1091D000CAE700BF08B505484FF000014FF4105230
:1091E00026F0E5FA14F024FC08BD00BFD06E012083
:1091F0002DE9F04F83B08B460192824600284DD076
:1092000000294ED046F60456C2F201064FF0000483
:10921000B1464FF00E08D6F8EC519DB304EBC400F4
:1092200009EB800101F5E6705146424626F0E8FC64
:1092300040BB04EBC40209EB820303F5ED70594611
:10924000424626F0DDFCE8B904EBC40046F60451C2
:10925000C2F2010101EB8002D2F8E831ED18B5F558
:10926000805F21DC98B20AF07FFB0199086004EB73
:10927000C40446F60450C2F2010000EB8402D2F8A6
:10928000EC0113E004F101073C4606F12406D6F890
:10929000EC512DB30DE06FF0030007E04FF0FF300D
:1092A00004E04FF0FF3001E06FF0010003B0BDE8D3
:1092B000F08F07EBC70009EB800101F5E67051461E
:1092C000424626F09DFC58B907EBC70209EB820322
:1092D00003F5ED705946424626F092FC0028B3D0C3
:1092E00007F1010406F12406B4F5807F93D1D2E79B
:1092F0002DE9F04F89B08A460592049381460028F3
:1093000000F03081002900F03081BE4E4FF00004A3
:1093100046F6045BC2F2010B4FF00E08D6F8EC5192
:10932000002D46D004EBC4000BEB800101F5E67084
:109330004946424626F064FC00283AD104EBC402B8
:109340000BEB820303F5ED705146424626F058FCC4
:1093500078BB04EBC40446F60450C2F2010000EBF3
:109360008402D2F8E8116E18B6F5805F04DC129B17
:10937000C818B0F5805F0ADD49F2C420C0F60500C8
:109380002A46129B09F0DAFD6FF00106FEE0049A0E
:10939000AA4200F3ED80129E73180598049EB1B2A4
:1093A0009AB20AF08BFAB0420CBF06466FF0020682
:1093B000ECE004F101073C4606F12406D6F8EC5136
:1093C000002D00F01581FBE04FF000084FF0FF3456
:1093D0000498129E80190390C446CDF81890CDF8D9
:1093E0001CA0B1E0324606F1010641F201039E42A3
:1093F00000F0C180834B614602969B46D3F8E8514A
:10940000954205DCD3F8EC61AD19954200F39780E5
:10941000B4F1FF3F04D1DBF8EC51002D08BF0C463E
:1094200001F101018A4603F12403D3F8E851954282
:1094300000F3B580AEE0029EBE42D3D1CDF80890D5
:10944000DDF81890DDF81CA005E0CDF80890DDF8F7
:109450001890DDF81CA0B4F1FF3F00F08F80129A45
:1094600008EB02030598049989B29AB20AF026FA29
:109470000646049A90420CD0129E009649F21C3087
:10948000C0F605000599434609F058FD6FF008063F
:109490007CE04FEAC40B0BEB04074FEA870505F5A8
:1094A000E47046F60457C2F20107C0194FF00005F8
:1094B000057145718571C571057245728572C572F8
:1094C000057345738573C5730574457400F1040015
:1094D00049464FF00E0226F0E1FB0BEB040207EBCE
:1094E000820383F8DA5183F8DB5183F8DC5183F887
:1094F000DD5183F8DE5183F8DF5183F8E05183F8C2
:10950000E15183F8E25183F8E35183F8E45183F8A1
:10951000E55183F8E65183F8E75103F5ED705146C4
:109520004FF00E0226F0BAFB5C4407EB8407C7F845
:10953000E8810299C7F8EC1114F07AFA26E008F1F4
:109540000108B8F5805F1CD0814600287FF77DAF09
:10955000B8F5805F18D008F10106039D08EB0507F8
:10956000424647E74FF0FF3610E04FF0FF360DE080
:109570006FF004060AE06FF0050607E06FF00706DB
:1095800004E06FF0060601E06FF00506304609B012
:10959000BDE8F08FD3F8EC61AD199542CFDCB4F1A2
:1095A000FF3F04D1D3F8EC51002D08BF544601F120
:1095B000010103F12403B1F5807F7FF41EAF3AE788
:1095C00007EBC7000BEB800101F5E6704946424608
:1095D00026F016FB60B907EBC7020BEB820303F51D
:1095E000ED705146424626F00BFB00283FF4B1AE29
:1095F00007F1010406F12406B4F5807F7FF48EAEF6
:10960000E2E600BF046D01202DE9F843044615464B
:109610009946884649B35AB3FF282CDC4FEAC00765
:10962000391846F60456C2F2010606EB810240469E
:1096300002F5E6714FF00E0226F030FB381906EB0A
:109640008003284603F5ED714FF00E0226F026FB4D
:109650004FF0000188F80E10A9733F1906EB87063A
:10966000D6F8EC21C9F8002007E04FF0FF3404E001
:109670004FF0FF3401E06FF001042046BDE8F883AD
:1096800038B545F29C23C2F20003186848B945F288
:10969000E851C2F200010A6845F29C23C2F20003BD
:1096A0001A6046F60450C2F2010090F8AC1001298D
:1096B0006ED145F29C20C2F200004168022940F0C0
:1096C000B88045F29C23C2F200039A68002A40F059
:1096D000B08045F29C23C2F20003DA68212A0EDD35
:1096E00045F67C51C2F200010B78002B00F0AE80F1
:1096F00049F27830C0F6050015F0BEFFA6E045F24D
:109700009C24C2F20004E5684FF00000FFF7A2F8C5
:1097100049F6F821C2F201014855E068236845F294
:10972000E852C2F200021168CB1A49F6D422C2F202
:1097300001021354E06800F10100E060D4F89010D9
:1097400004EB81031A691069D0B1E06821280DDDAE
:109750004FF05C0003F082FF4FF05C004FF001011E
:109760004FF0000213460BF0B7FB6FE04FF05C00C8
:109770004FF005014FF00002134603F02BFF65E0A8
:1097800045F29C21C2F200014FF00003CB605DE086
:1097900002294ED145F29C22C2F20002D368212B4D
:1097A0000DDD45F67C53C2F200031A78002A4DD035
:1097B00049F2B030C0F6050015F05EFF46E045F214
:1097C0009C24C2F20004E5684FF00000FFF742F865
:1097D00049F6F821C2F201014855E068226845F2D5
:1097E000E853C2F2000319688B1A49F6D422C2F278
:1097F00001021354E06800F10100E060E1682129F2
:109800000DDD4FF05C0003F029FF4FF05C004FF0DE
:1098100001014FF0000213460BF05EFB16E04FF023
:109820005C004FF005014FF00002134603F0D2FE3A
:109830000CE045F67C50C2F200000178012905D900
:1098400049F2E830C0F6050009F078FB45F2E8522D
:10985000C2F20002106845F29C21C2F200010860C9
:1098600038BD00BF10B582B046F60454C2F2010400
:1098700094F8AC1094F8AD2094F8AE3094F8AF00A2
:10988000009049F20840C0F6050009F057FB94F833
:10989000AC1011B1022926D80FE046F20811C2F22D
:1098A000010188694FF0006117F07AF949F25040E0
:1098B000C0F6050009F042FB1BE046F20813C2F2B5
:1098C0000103986949F28161C0F600014FF000621E
:1098D00017F042F949F26C40C0F605004FF0000164
:1098E00009F02CFB05E049F29440C0F6050009F0B0
:1098F00025FB02B010BD00BF10B584B045F29C231B
:10990000C2F20003D3F89420D3F89800111A00296A
:1099100023DC45F29C23C2F200039968002900F081
:10992000798146F60452C2F2010292F8AE0030B9D3
:109930004FF00A004FF00101FEF7BAFF05E04FF0CB
:109940000A004FF00001FEF7B3FF45F29C23C2F27C
:1099500000034FF0000199605CE145F67C53C2F2D0
:1099600000031A78012A12D945F29C20C2F20000A5
:10997000B0F89C1059B949F61C33C2F2010349F200
:10998000B840C0F6050019785A7815F075FE45F212
:109990009C22C2F20002B2F89C00012844D846F68C
:1099A0000454C2F2010494F8AF1000F00102914295
:1099B00009D146F60454C2F2010494F8AE100C1C0E
:1099C00018BF012409E046F60450C2F2010090F8E5
:1099D000AE30D3F1010438BF00244FF00A00214615
:1099E000FEF766FF45F67C52C2F2000210780128AD
:1099F0000CD949F2E440C0F6050045F29C23C2F2BE
:109A00000003B3F89C10224615F036FE45F29C2167
:109A1000C2F20001B1F89C2002F10102A1F89C20E1
:109A20004FF00000C860F5E045F29C23C2F200034D
:109A3000D3F89810D3F89420531A002B40F3EA80FF
:109A400049F61C34C2F20104615C40F24802C2F2E1
:109A50000002138819421ED046F60452C2F20102D7
:109A600092F8AF4000F00100844209D146F604525A
:109A7000C2F2010292F8AE40003418BF012428E07F
:109A800046F60453C2F2010393F8AE10D1F101047B
:109A900038BF00241DE046F60454C2F2010494F8D5
:109AA000AF1000F0010081420AD146F60454C2F220
:109AB000010494F8AE10D1F1010438BF002408E08D
:109AC00046F60452C2F2010292F8AE301C1C18BFD6
:109AD00001244FF00A002146FEF7EAFE45F67C50CD
:109AE000C2F200000378012B1ED945F29C21C2F27C
:109AF0000001D1F8982049F61C30C2F20100835CC5
:109B000040F24800C2F200000088B1F89C100090BA
:109B100003420CBF002001200190029449F20C5036
:109B2000C0F6050015F0A8FD45F29C22C2F2000225
:109B3000B2F89C3003F1010399B2A2F89C1011F025
:109B4000010F67D140F24800C2F2000002884FEADC
:109B500052030380002B5DD145F29C23C2F2000327
:109B6000D3F8982002F10102C3F8982040F248018E
:109B7000C2F200014FF080000880D3F894309A427E
:109B800048D145F29C21C2F200014FF00002C1F819
:109B90009420C1F89820A1F89C20886800F1010069
:109BA000886045F67C53C2F20003197849B349F244
:109BB0006850C0F6050009F0C1F945F29C22C2F2D6
:109BC0000002D068E8B145F29C23C2F20003D968D4
:109BD00049F29C50C0F6050009F0B0F945F67C51F9
:109BE000C2F200010A78012A0BD945F29C20C2F288
:109BF0000000C36849F6F820C2F2010099B20AF0E9
:109C000013F84FF05A004FF002014FF000021346D4
:109C100003F0E0FC04B010BD70B506460C4645F6F6
:109C20007C53C2F20003187868B149F2E450C0F6E0
:109C300005003146224645F29C25C2F20005D5F8C2
:109C4000943009F07BF972B645F29C21C2F2000112
:109C5000D1F894201519042D12DD62B645F67C5119
:109C6000C2F200010A78F2B149F21C60C0F60500A8
:109C700029464FF0040209F061F94FF0FF3070BD42
:109C800049F61C33C2F20103D0183146224625F0B2
:109C90006BFD45F29C20C2F20000C0F8945062B601
:109CA0004FF0000070BD4FF0FF3070BD70B545F251
:109CB0009C23C2F200035868002840F08A8045F2D5
:109CC0009C21C2F20001D1F890004FF01F04C8F2AD
:109CD00000040440002C05DA04F1FF3262F01F0496
:109CE00004F10104254645F29C23C2F2000303EB74
:109CF00084010B69FBB94FF001044FF01F02C8F259
:109D0000000245F29C26C2F20006251815EA02015F
:109D100066D55FE0251815EA020305D503F1FF318A
:109D200061F01F0303F101031D4606EB83010B697C
:109D3000002B38D001E04FF0000403F10800D9698E
:109D4000FFF76AFF45F29C20C2F20000C0F8905075
:109D50004FF00102426045F67C51C2F200010B78DF
:109D60004BB345F29C20C2F2000000EB8502116962
:109D700049F26060C0F60500C96909F0DFF845F6F0
:109D80007C53C2F200031878012814D945F29C22B2
:109D9000C2F2000202EB8505296901F10800898BF6
:109DA00009F042FF07E004F101010C460D1815EA25
:109DB000020324D51DE0202C0BD145F67C53C2F2C2
:109DC0000003187828B149F29460C0F6050009F044
:109DD000B5F870BD01F1FF3363F01F0101F101011E
:109DE0000D4606EB81031B69002BA6D104F101048B
:109DF00090E703F1FF3363F01F0303F101031D46F6
:109E000006EB83031B69002B97D101F10104202C81
:109E100080D1D2E72DE9F04F87B05A2807D0C0F2A1
:109E2000B6835B2842D05C2840F0B1836CE046F6F4
:109E30000453C2F2010393F8AC0001282AD145F281
:109E40009C23C2F200034FF0020058604FF0000163
:109E5000D960D3F8902003EB8203196931B949F234
:109E6000C460C0F6050009F069F890E3086940B1E4
:109E70004FF05C0089694FF00002134603F0AAFB23
:109E800085E34FF05B0049694FF00002134603F091
:109E9000A1FB7CE3022840F07A8345F29C21C2F2C8
:109EA00000014FF000024A60CA6070E346F60451B8
:109EB000C2F2010191F8AC30012B06D049F20470D6
:109EC000C0F6050009F03AF861E345F29C20C2F2C1
:109ED0000000D0F8902000EB82010A69106820B1E0
:109EE0004FF000010B460AF0F7FF45F29C23C2F247
:109EF0000003D3F8900003EB80014FF000020A61E9
:109F00005A60FFF7D3FE42E346F60453C2F2010360
:109F100093F8AC00022840F0868145F67C53C2F2EB
:109F200000031A784AB345F29C24C2F20004E168A7
:109F300049F24C70C0F6050009F000F8E16800290C
:109F40001BDD4FF0000449F27078C0F6050849F6B1
:109F5000F827C2F2010749F6D426C2F2010645F2FB
:109F60009C25C2F200054046E15DA25D15F084FB30
:109F700004F10104E868A042F5DC45F29C23C2F23A
:109F80000003DA68102A13DC45F67C52C2F20002A4
:109F90001178002900F03F8145F29C23C2F20003B2
:109FA000D96849F29470C0F6050008F0C7FF32E1A5
:109FB00045F29C24C2F20004E46846F60451C2F261
:109FC000010191F8AE0091F8AF305840002C7BDCD5
:109FD000A9E0DDF808A001E0DDF808A0054615F8C5
:109FE00001CF0078A0F10300C0B202280CD8ACF178
:109FF00003095FFA89FCBCF1070F05D8DDF804906E
:10A0000013F80900504512D003F1010C63463146A4
:10A010004246284610F8019F2D78A5F10305EDB2C0
:10A02000022D00F20183F1E242463146A7E29C4252
:10A0300077D044DD13F80B00DDF800A013F80AA078
:10A0400003F10105A0F1030C5FFA8CFCBCF1070FD2
:10A0500031D84FF00109CC46A14664460DE013F813
:10A060000B00009D13F805A003F10105A0F1030CFE
:10A070005FFA8CFCBCF1070F1FD8052803D964B91F
:10A080004FF0010404E0BAF1050F98BF9D1C2CB1FC
:10A09000785C104378542B4605E034467B5C23EA19
:10A0A00002037B542B46521004BF01318022994594
:10A0B000D5DC4C4603E02B4601E04C462B4603F131
:10A0C00001039C4217DC2CE04FF000034FF4807238
:10A0D000194649F6D42BC2F2010B49F6F825C2F213
:10A0E0000105019580F0010702971E4690460BF18D
:10A0F0000100009005AF9C4240F341826FEA0305E6
:10A1000005EB040909F0010C03EB0B0010F8019FAB
:10A1100013F80B50A5F10305EDB2022D00F24A82AF
:10A1200038E200290DDC45F67C53C2F200031878B2
:10A13000002870D049F2C070C0F6050008F0FEFE9D
:10A1400069E045F67C52C2F2000213782BB149F265
:10A15000EC70C0F6050008F0F1FE45F29C21C2F259
:10A160000001D1F8A0009DF8141042698A4223D062
:10A1700045F29C23C2F20003D3F8A40042698A424C
:10A1800014D045F29C20C2F20000D0F8A800436928
:10A190008B420ED045F29C22C2F20002D2F8AC00F3
:10A1A00043698B4208BF032408D026E04FF0010426
:10A1B00004E04FF0020401E04FF00004BDF8141079
:10A1C000018145F29C23C2F2000303EB8400D0F826
:10A1D000A02010684FF000010B460AF07DFE45F606
:10A1E0007C52C2F200021178A9B149F61800C0F6FB
:10A1F0000500214608F0A2FE0DE045F67C50C2F2B3
:10A20000000002783AB149F64800C0F605009DF812
:10A21000152008F093FE45F29C20C2F200004FF09A
:10A220000002C260B3E1012840F0B18145F29C22F6
:10A23000C2F200025268022A13D045F67C50C2F2E4
:10A2400000000378002B00F07E8145F29C21C2F2D1
:10A250000001C96849F68400C0F6050008F06EFEEA
:10A2600071E145F67C53C2F200031878E8B145F27B
:10A270009C21C2F20001C96849F6D000C0F6050071
:10A2800008F05CFE45F67C52C2F200021378012B06
:10A290000BD945F29C20C2F20000C16849F6F820B3
:10A2A000C2F2010089B209F0BFFC45F29C22C2F261
:10A2B0000002D2F89030039302EB8300D0F810A094
:10A2C000DAF8102072B945F67C53C2F2000319780F
:10A2D000002900F0388149F60810C0F6050008F0A2
:10A2E0002DFE30E145F29C23C2F20003D868082815
:10A2F00023DC45F67C51C2F20001087850B145F2EA
:10A300009C23C2F20003D96849F64810C0F6050044
:10A3100008F014FE45F29C21C2F20001D1F8902011
:10A3200001EB820002695068002800F00C814FF0B8
:10A3300000010B460AF0D0FD05E145F29C24C2F273
:10A340000004E46846F60452C2F2010292F8AE003C
:10A3500092F8AF305840002CD8BF002140F3AC80B9
:10A3600081E0CDF80090DDF80490DDF8088005E08C
:10A37000CDF80090DDF80490DDF80880064616F868
:10A38000017F0078A0F10300C0B2022808D8A7F12D
:10A390000307FFB2072F03D813F80900404512D076
:10A3A00003F101073B4629467246304610F801CFBB
:10A3B0003678A6F10306F6B2022E00F2808172E131
:10A3C00072462946DFE0DDF8009001E0DDF80090FC
:10A3D0009C4271D042DD13F8090013F80B8003F1A1
:10A3E0000107A0F10306F6B2072E33D84FF0010C97
:10A3F0006646A44634460AE013F8090013F80B80B9
:10A4000003F10107A0F10306F6B2072E24D80528B0
:10A4100004D97CB93B464FF0010405E0B8F1050FC3
:10A4200094BF02333B463CB10AEB0100067B164366
:10A43000067307E03B462C460AEB0100067B26EA42
:10A4400002060673521004BF013180229C45D3DC02
:10A45000644603E03B4601E064463B4603F10103EA
:10A460009C4215DC28E04FF000034FF4807219463F
:10A4700049F6D429C2F2010949F6F825C2F20105CC
:10A48000019580F0010002901D46964609F1010BEE
:10A49000A34278DA6FEA03073E1906F0010703EBDF
:10A4A000090010F801CF13F80960A6F10306F6B20F
:10A4B000022E00F2CF80BFE0CAF8201045F29C21A6
:10A4C000C2F20001039B01EB83021069016A0029BB
:10A4D0001CDC45F67C52C2F20002117829B149F227
:10A4E000C070C0F6050008F029FD45F29C20C2F2BC
:10A4F0000000D0F8903000EB83021269506810B36E
:10A500004FF000010B460AF0E7FC1CE045F67C53D7
:10A51000C2F200031A782AB149F2EC70C0F60500C5
:10A5200008F00CFD45F29C21C2F20001D1F8900028
:10A5300001EB80031A69106888B14FF000010B46E7
:10A540000AF0CAFC0BE045F29C20C2F20000D0F8F1
:10A55000902000EB820319694FF00000086245F279
:10A560009C23C2F200034FF00002DA60D3F890108F
:10A5700003EB810002615A60FFF798FB07E09C4201
:10A580007FF49DADCDE59C427FF468AF94E707B0C2
:10A59000BDE8F08FA9F103095FFA89F9B9F1070F56
:10A5A00008D8DDF8049013F80950DDF808904D45FF
:10A5B0003FF43DAD03F10103314642469C427FF733
:10A5C00033ADBCF1000F3FF404AD054610F801CFE8
:10A5D0002D78A5F10305EDB2022D0FD8ACF1030CD7
:10A5E0005FFA8CFCBCF1070F08D8DDF8049013F873
:10A5F0000950DDF808904D453FF419AD03F1010312
:10A60000314642469C423FF7E7AC0DE5A9F103090C
:10A610005FFA89F9B9F1070F06D8DDF804901CF844
:10A62000095055453FF403AD0CF101033146424654
:10A630009C423FF7D3ACF7E4ACF10306F6B2072E29
:10A6400008D8DDF804C013F80C60DDF808C06645D2
:10A650003FF4BEAE03F10103294672469C427FF7E8
:10A66000AFAE002F3FF47DAE064610F8017F36787E
:10A67000A6F10306F6B2022E0DD8A7F10306F6B234
:10A68000072E08D8DDF804C013F80C60DDF808C008
:10A6900066453FF49DAE03F10103294672469C4294
:10A6A0003FF766AE8CE6ACF1030C5FFA8CFCBCF1B4
:10A6B000070F04D817F8096046453FF487AE07F145
:10A6C0000103294672469C423FF758AEDDF80090E0
:10A6D00076E600BFF8B50146002876D046F604536A
:10A6E000C2F2010393F8AC00012828D145F29C2264
:10A6F000C2F20002D2F890704FF01F03C8F20003BC
:10A700003B40002B05DA03F1FF3363F01F0303F135
:10A7100001031A4645F29C20C2F2000000EB8303BD
:10A720001B69002B36D04FF001034FF01F04C8F215
:10A7300000048646DA1912EA04004FD548E049F6CB
:10A740009010C0F6050008F0F9FB4FF0FF30F8BD9F
:10A75000DD1915EA040005D500F1FF3262F01F0093
:10A7600000F1010002460EEB80052D693DB103F1B9
:10A7700001063346F21912EA04053ED537E0202BD4
:10A7800008D149F6D810C0F6050008F0D7FB6FF0E5
:10A790000100F8BD45F29C20C2F2000000EB8203EC
:10A7A00019614FF00000086245F67C53C2F20003C5
:10A7B000187828B149F62420C0F6050008F0BEFB41
:10A7C000FFF774FA4FF00000F8BD4FF0FF30F8BD0E
:10A7D00000F1FF3060F01F0000F1010002460EEBB7
:10A7E000800000690028CAD003F10103B0E705F139
:10A7F000FF3060F01F0505F101052A460EEB8505C7
:10A8000028690028BBD006F10103202BA0D1B8E7AE
:10A810002DE9F84305460F46214C4FF0000945F25B
:10A820009C26C2F20006C84654F8040B98B173681F
:10A830001BB1D6F8901049450DD00268AA4201DB41
:10A84000BA4204DD43689D4205DC9F4203DB24F0ED
:10A8500039FF44F8048C09F1010954F8040B00B9DC
:10A8600017E072688AB90168A94205DB0AE024F0A2
:10A8700029FF44F8048C0CE04268954209DC9742B9
:10A8800007DBF4E7B942F2DDF6E7D6F890304B4546
:10A89000E9D109F10109B9F1200FC5D1BDE8F8836B
:10A8A000AC52002008B5024600284CD046F60453AE
:10A8B000C2F2010393F8AC00022807D145F29C21B3
:10A8C000C2F20001D1F8A0304BB92FE049F66C205C
:10A8D000C0F6050008F032FB4FF0FF3008BD45F22E
:10A8E0009C20C2F20000D0F8A41081B145F29C2354
:10A8F000C2F20003D3F8A80060B145F29C21C2F275
:10A900000001D1F8AC304FF003008BB105E04FF0FF
:10A9100001000DE04FF002000AE049F6B420C0F655
:10A92000050008F00BFB6FF0010008BD4FF00000C0
:10A9300045F29C21C2F2000101EB8003C3F8A02084
:10A940004FF0000008BD4FF0FF3008BD08B50346CA
:10A95000002847D046F60452C2F2010292F8AC0039
:10A96000022808D145F29C21C2F20001D1F8A020B2
:10A970009A4209D129E049F6F820C0F6050008F00E
:10A98000DDFA4FF0FF3008BD45F29C20C2F2000016
:10A99000D0F8A410994212D045F29C22C2F20002D3
:10A9A000D2F8A80098420DD045F29C21C2F20001D5
:10A9B000D1F8AC209A4208BF032208D015E04FF02E
:10A9C000010204E04FF0020201E04FF0000245F204
:10A9D0009C23C2F2000303EB82014FF00000C1F898
:10A9E000A00008BD4FF0FF3008BD6FF0010008BDAA
:10A9F00038B504460D4645F29C23C2F20003D3F855
:10AA0000A00070B101688C420BDC8D4209DB24F0A0
:10AA100059FE45F29C20C2F200004FF00002C0F83F
:10AA2000A02045F29C23C2F20003D3F8A40070B129
:10AA300001688C420BDC8D4209DB24F043FE45F2B9
:10AA40009C20C2F200004FF00002C0F8A42045F2A2
:10AA50009C23C2F20003D3F8A80070B101688C42B5
:10AA60000BDC8D4209DB24F02DFE45F29C20C2F266
:10AA700000004FF00002C0F8A82045F29C23C2F26B
:10AA80000003D3F8AC0070B10168A1420BDBA9420E
:10AA900009DC24F017FE45F29C20C2F200004FF0C2
:10AAA0000002C0F8AC2038BD10B50446002860D0C4
:10AAB00046F60453C2F2010393F8AC00022808D012
:10AAC00049F64030C0F6050008F038FA4FF0FF3084
:10AAD00010BD45F29C21C2F20001D1F8A0200AB1BC
:10AAE000944224D045F29C23C2F20003D3F8A40080
:10AAF00008B184421BD045F29C21C2F20001D1F87A
:10AB0000A8200AB1944212D045F29C23C2F200035D
:10AB1000D3F8AC0008B1844209D049F68430C0F6BD
:10AB20000500214608F00AFA4FF0FF3010BD4FF043
:10AB30000001216146F60452C2F2010292F8AD30E2
:10AB4000237145F67C50C2F20000017859B149F6F4
:10AB5000E030C0F60500E16808F0F0F904F1040007
:10AB6000A18909F061F804F10400E168FFF754F8E5
:10AB700010BD4FF0FF3010BD00B5C1B046F6045314
:10AB8000C2F2010393F8BA00012840F0928045F226
:10AB90004C33C2F20003196C53F82120D2B94FF4A0
:10ABA0008840C4F2000069464FF480724FF0010300
:10ABB00015F046FD014645F67C53C2F200031878B5
:10ABC000002800F0D68049F61840C0F6050008F0CD
:10ABD000B5F9CEE04FF48840C4F2000015F0DCFC7B
:10ABE00045F24C33C2F20003196C53F82120D2F81D
:10ABF0001032C3F58072904206DA4FF48840C4F2F6
:10AC0000000015F0C9FC0246002A0EDC45F67C5116
:10AC1000C2F200010A78002A00F0AB8049F65440E5
:10AC2000C0F6050008F08AF9A3E045F24C30C2F204
:10AC30000000016C50F82130D3F8100200F5847147
:10AC40004FF48840C4F2000059184FF0010315F08A
:10AC5000F7FC00280BDD45F24C33C2F200031A6CFE
:10AC600053F82210D1F810321818C1F8100245F22A
:10AC70004C31C2F200010A6C51F82230D3F81002B4
:10AC8000FF280CDD4FF0530002F0E8FC4FF05300BA
:10AC90004FF001014FF0000213460AF01DF94FF08A
:10ACA00053004FF01E014FF00002134602F092FCD9
:10ACB0005FE002285DD14FF48840C4F2000015F037
:10ACC0006BFC45F24C31C2F200014A6CC2F5807255
:10ACD000904206DA4FF48840C4F2000015F05CFCA4
:10ACE0000246002A0DDC45F67C52C2F200021078C2
:10ACF00000283ED049F68C40C0F6050008F01EF949
:10AD000037E045F24C33C2F20003596C4FF48840EF
:10AD1000C4F2000049F62033C2F20103C9184FF013
:10AD2000010315F08DFC002806DD45F24C31C2F21E
:10AD300000014A6C1018486445F24C33C2F200031B
:10AD4000596CFF290CDD4FF0530002F087FC4FF0E7
:10AD500053004FF001014FF0000213460AF0BCF817
:10AD60004FF053004FF005014FF00002134602F080
:10AD700031FC41B000BD00BF38B545F24C33C2F2E2
:10AD80000003986C002840F0C38145F24C31C2F2B8
:10AD900000010A6C4FF00F03C8F200031340002BB0
:10ADA00005DA03F1FF3464F00F0303F101031C46DD
:10ADB00045F24C30C2F2000050F82330002B40F036
:10ADC0006E8102F101014FF00F03C8F200030B4046
:10ADD000002B05DA03F1FF3464F00F0303F10103E4
:10ADE0001C4645F24C30C2F2000050F82330002BD4
:10ADF00040F0558102F102014FF00F03C8F2000349
:10AE00000B40002B05DA03F1FF3464F00F0303F16C
:10AE100001031C4645F24C30C2F2000050F82330CA
:10AE2000002B40F03C8102F103014FF00F03C8F208
:10AE300000030B40002B05DA03F1FF3464F00F032D
:10AE400003F101031C4645F24C30C2F2000050F8F9
:10AE50002330002B40F0238102F104014FF00F0357
:10AE6000C8F200030B40002B05DA03F1FF3464F055
:10AE70000F0303F101031C4645F24C30C2F20000FF
:10AE800050F82330002B40F00A8102F105014FF009
:10AE90000F03C8F200030B40002B05DA03F1FF3467
:10AEA00064F00F0303F101031C4645F24C30C2F27B
:10AEB000000050F82330002B40F0F18002F1060131
:10AEC0004FF00F03C8F200030B40002B05DA03F12B
:10AED000FF3464F00F0303F101031C4645F24C30CC
:10AEE000C2F2000050F82330002B40F0D88002F16D
:10AEF00007014FF00F03C8F200030B40002B05DAE7
:10AF000003F1FF3464F00F0303F101031C4645F223
:10AF10004C30C2F2000050F82330002B40F0BF80CC
:10AF200002F108014FF00F03C8F200030B40002BA1
:10AF300005DA03F1FF3464F00F0303F101031C464B
:10AF400045F24C30C2F2000050F82330002B40F0A4
:10AF5000A68002F109014FF00F03C8F200030B4075
:10AF6000002B05DA03F1FF3464F00F0303F1010352
:10AF70001C4645F24C30C2F2000050F82330002B42
:10AF800040F08D8002F10A014FF00F03C8F2000378
:10AF90000B40002B05DA03F1FF3464F00F0303F1DB
:10AFA00001031C4645F24C30C2F2000050F8233039
:10AFB000002B74D102F10B014FF00F03C8F2000314
:10AFC0000B40002B05DA03F1FF3464F00F0303F1AB
:10AFD00001031C4645F24C30C2F2000050F8233009
:10AFE000002B5CD102F10C014FF00F03C8F20003FB
:10AFF0000B40002B05DA03F1FF3464F00F0303F17B
:10B0000001031C4645F24C30C2F2000050F82330D8
:10B01000002B44D102F10D014FF00F03C8F20003E1
:10B020000B40002B05DA03F1FF3464F00F0303F14A
:10B0300001031C4645F24C30C2F2000050F82330A8
:10B040006BBB02F10E014FF00F03C8F200030B407F
:10B05000002B05DA03F1FF3464F00F0303F1010361
:10B060001C4645F24C30C2F2000050F82330B3B910
:10B0700002F10F024FF00F01C8F200011140002948
:10B0800005DA01F1FF3262F00F0101F101010C4616
:10B0900045F24C33C2F2000353F82130C3B34FF4EE
:10B0A0008840C4F2000003F10801D3F80C2214F028
:10B0B00015F945F24C30C2F2000004644FF0010271
:10B0C000826450F824104FF05300D1F808124FF06A
:10B0D0000002134602F07EFA45F67C53C2F20003EA
:10B0E0001878A8B145F24C35C2F2000555F8242075
:10B0F00049F6C840C0F60500D2F80C1207F01EFF52
:10B1000055F8241001F10800B1F80C1208F08CFD7C
:10B1100038BD00BF2DE9F04385B0532840F0C4810D
:10B1200046F60453C2F2010393F8BA00022840F035
:10B13000088145F67C51C2F200010B7893B145F2CB
:10B140004C34C2F2000449F6FC40C0F60500616CC4
:10B1500007F0F4FE49F62030C2F20100B4F84410C2
:10B1600008F062FD45F24C30C2F20000416C032948
:10B1700006DC49F62C50C0F6050007F0DFFED8E0EB
:10B1800049F62034C2F20104A1F10201204689B23D
:10B1900008F0EEFC024645F24C31C2F200014B6C65
:10B1A000E41814F8010C14F8021C41EA00218A4248
:10B1B00006D049F65850C0F6050007F0BFFEB8E0CB
:10B1C00049F62032C2F20102107846F60451C2F26A
:10B1D000010191F8BB20904240F0AB8049F6203647
:10B1E000C2F20106757896F802E0F77847EA0E2E6B
:10B1F00096F804C0747944EA0C2CB64E4FF0000463
:10B200000EEB0C0806F104077068D0F80C12A94286
:10B2100050D1102D29D8D0F8102296454ADBD0F80D
:10B220001412884546DA00F5827049F62031C2F2E0
:10B2300001011A4624F098FA45F24C30C2F200009F
:10B2400000EB8401CA6C10684FF000010B4609F056
:10B2500043FE45F67C52C2F200021378002B68D000
:10B260009D48214607F06AFE63E000F5827049F6CA
:10B270002031C2F201011A4624F076FA45F24C332D
:10B28000C2F2000303EB8402D26C10684FF000019D
:10B290000B4609F021FE45F67C51C2F20001087808
:10B2A000002846D049F69450C0F60500214607F024
:10B2B00045FE3EE004F101094C4607F104067868BA
:10B2C0002946D0F80C72AF4240F0FD80EFE045F621
:10B2D0007C53C2F20003187868B149F6C850C0F632
:10B2E00005007246634607F029FE4AF67470C0F600
:10B2F000050007F023FE46F60451C2F2010191F861
:10B30000BB208DF8002065F07F058DF801504FF0CF
:10B3100002038DF8023068464FF0030108F078FC14
:10B320004FF48840C4F2000069464FF0050213F064
:10B33000D5FF45F24C30C2F200004FF000014164ED
:10B34000B2E0012840F0B08045F67C51C2F2000125
:10B350000A78BAB145F24C34C2F20004236C54F8B6
:10B36000231049F61C60C0F60500D1F8101207F052
:10B37000E5FD206C54F8202002F58470B2F810121C
:10B3800008F052FC45F24C33C2F20003196C53F83A
:10B390002120D2F8103233B950684FF000010B462B
:10B3A00009F09AFD69E0032B13DC49F64C60C0F606
:10B3B000050007F0C3FD45F24C30C2F20000016CFD
:10B3C00050F8212050684FF000010B4609F084FD31
:10B3D00053E092F80941102C17D892F909514FF017
:10B3E000010000FA05F111F4C03F11D111F0600F16
:10B3F00003D111F01E0F03D107E04FF0070409E05D
:10B4000092F80A4104F1030404E0A3F1020401E00C
:10B410004FF0060402F58470A1B208F0A9FB0246C1
:10B4200045F24C35C2F200052B6C55F82350A3B2FF
:10B43000EC1894F8090194F8081141EA00218A42B5
:10B4400013D049F67460C0F6050007F077FD45F2A9
:10B450004C33C2F200031A6C53F8222050684FF0AC
:10B4600000010B4609F038FD12E028684FF000019A
:10B470002A460B4609F030FD0AE045F24C33C2F291
:10B4800000031A6C53F822004FF00001C0F81012AC
:10B4900045F24C33C2F20003186C4FF0000243F83F
:10B4A00020209A64FFF768FC05B0BDE8F083102DFA
:10B4B0003FF6DBAED0F81022964504DBD0F814221C
:10B4C0009045FFF6B0AE09F10104402C7FF49AAE2E
:10B4D000FDE600BF94530020949D050870B5014619
:10B4E000002800F0BF8146F60453C2F2010393F82E
:10B4F000BA0001281AD145F24C32C2F20002136C94
:10B500004FF00F02C8F200021A40002A05DA02F1D9
:10B51000FF3464F00F0202F10102144645F24C3090
:10B52000C2F2000050F822204AB97FE149F6C46017
:10B53000C0F6050007F002FD4FF0FF3070BD03F1CB
:10B5400001044FF00F02C8F200022240002A05DA7F
:10B5500002F1FF3060F00F0202F10102144645F2E1
:10B560004C30C2F2000050F82220002A00F05E8128
:10B5700003F102044FF00F02C8F200022240002A39
:10B5800005DA02F1FF3060F00F0202F10102144609
:10B5900045F24C30C2F2000050F82220002A00F0A0
:10B5A000458103F103044FF00F02C8F2000222406C
:10B5B000002A05DA02F1FF3060F00F0202F1010209
:10B5C000144645F24C30C2F2000050F82220002A06
:10B5D00000F02C8103F104044FF00F02C8F20002C6
:10B5E0002240002A05DA02F1FF3060F00F0202F17A
:10B5F0000102144645F24C30C2F2000050F82220FD
:10B60000002A00F0138103F105044FF00F02C8F285
:10B6100000022240002A05DA02F1FF3060F00F023A
:10B6200002F10102144645F24C30C2F2000050F81B
:10B630002220002A00F0FA8003F106044FF00F02E6
:10B64000C8F200022240002A05DA02F1FF3060F061
:10B650000F0202F10102144645F24C30C2F2000022
:10B6600050F82220002A00F0E18003F107044FF097
:10B670000F02C8F200022240002A05DA02F1FF3070
:10B6800060F00F0202F10102144645F24C30C2F2A2
:10B69000000050F82220002A00F0C88003F10804BE
:10B6A0004FF00F02C8F200022240002A05DA02F130
:10B6B000FF3060F00F0202F10102144645F24C30F7
:10B6C000C2F2000050F82220002A00F0AF8003F1FF
:10B6D00009044FF00F02C8F200022240002A05DAE6
:10B6E00002F1FF3060F00F0202F10102144645F250
:10B6F0004C30C2F2000050F82220002A00F0968060
:10B7000003F10A044FF00F02C8F200022240002A9F
:10B7100005DA02F1FF3060F00F0202F10102144677
:10B7200045F24C30C2F2000050F82220002A7DD0B1
:10B7300003F10B044FF00F02C8F200022240002A6E
:10B7400005DA02F1FF3060F00F0202F10102144647
:10B7500045F24C30C2F2000050F82220002A65D099
:10B7600003F10C044FF00F02C8F200022240002A3D
:10B7700005DA02F1FF3060F00F0202F10102144617
:10B7800045F24C30C2F2000050F82220002A4DD081
:10B7900003F10D044FF00F02C8F200022240002A0C
:10B7A00005DA02F1FF3060F00F0202F101021446E7
:10B7B00045F24C30C2F2000050F82220B2B303F13F
:10B7C0000E044FF00F02C8F200022240002A05DAF0
:10B7D00002F1FF3060F00F0202F10102144645F25F
:10B7E0004C30C2F2000050F82220FAB103F10F03EE
:10B7F0004FF00F00C8F200001840002805DA00F1F1
:10B80000FF3363F00F0000F10100044645F24C32B3
:10B81000C2F2000252F8203043B149F61470C0F66B
:10B82000050007F08BFB6FF0010070BD45F24C3650
:10B83000C2F2000646F824104FF00005C1F810527D
:10B8400001F10800B1F80C1208F0E2F956F82410E2
:10B85000D1F80C0200F10200C1F80C02FFF78CFADB
:10B86000284670BD4FF0FF3070BD00BF38B50446AC
:10B870000D4645F24C33C2F20003186818B345F286
:10B880004C31C2F200018A6CB2B90268944210DDF8
:10B8900009E023F017FF45F24C30C2F200004FF0F0
:10B8A000000101600FE043689C420CDC9D42F0DA2D
:10B8B00009E09542EDDAF6E745F24C33C2F20003B7
:10B8C000196C0029E1D145F24C32C2F200025068F5
:10B8D00018B345F24C33C2F20003996CB1B9016858
:10B8E0008C4210DD09E023F0EDFE45F24C30C2F24F
:10B8F00000004FF0000343600FE0426894420CDC0C
:10B900009542F0DA09E08D42EDDAF6E745F24C3285
:10B91000C2F20002136C012BE1D145F24C31C2F2AC
:10B920000001886818B345F24C32C2F20002936CF1
:10B93000B3B903689C4210DD09E023F0C3FE45F271
:10B940004C30C2F200004FF0000282600FE041680C
:10B950008C420CDC8D42F0DA09E09D42EDDAF6E72C
:10B9600045F24C31C2F200010A6C022AE1D145F2E3
:10B970004C33C2F20003D86818B345F24C31C2F21E
:10B9800000018A6CB2B90268944210DD09E023F02C
:10B9900099FE45F24C30C2F200004FF00001C16048
:10B9A0000FE043689C420CDC9D42F0DA09E09542CE
:10B9B000EDDAF6E745F24C33C2F20003196C0329C5
:10B9C000E1D145F24C32C2F20002106918B345F2DF
:10B9D0004C33C2F20003996CB1B901688C4210DD9E
:10B9E00009E023F06FFE45F24C30C2F200004FF048
:10B9F000000303610FE0426894420CDC9542F0DAE8
:10BA000009E08D42EDDAF6E745F24C32C2F200026F
:10BA1000136C042BE1D145F24C31C2F200014869AC
:10BA200018B345F24C32C2F20002936CB3B903680A
:10BA30009C4210DD09E023F045FE45F24C30C2F295
:10BA400000004FF0000242610FE041688C420CDCC4
:10BA50008D42F0DA09E09D42EDDAF6E745F24C312D
:10BA6000C2F200010A6C052AE1D145F24C33C2F260
:10BA70000003986918B345F24C31C2F200018A6C98
:10BA8000B2B90268944210DD09E023F01BFE45F2D2
:10BA90004C30C2F200004FF0000181610FE04368BA
:10BAA0009C420CDC9D42F0DA09E09542EDDAF6E7C3
:10BAB00045F24C33C2F20003196C0629E1D145F27C
:10BAC0004C32C2F20002D06918B345F24C33C2F2D4
:10BAD0000003996CB1B901688C4210DD09E023F0D4
:10BAE000F1FD45F24C30C2F200004FF00003C3619B
:10BAF0000FE0426894420CDC9542F0DA09E08D4296
:10BB0000EDDAF6E745F24C32C2F20002136C072B75
:10BB1000E1D145F24C31C2F20001086A18B345F296
:10BB20004C32C2F20002936CB3B903689C4210DD40
:10BB300009E023F0C7FD45F24C30C2F200004FF09F
:10BB4000000202620FE041688C420CDC8D42F0DAA8
:10BB500009E09D42EDDAF6E745F24C31C2F2000110
:10BB60000A6C082AE1D145F24C33C2F20003586A4C
:10BB700018B345F24C31C2F200018A6CB2B90268C6
:10BB8000944210DD09E023F09DFD45F24C30C2F2F5
:10BB900000004FF0000141620FE043689C420CDC62
:10BBA0009D42F0DA09E09542EDDAF6E745F24C33D2
:10BBB000C2F20003196C0929E1D145F24C32C2F2FC
:10BBC0000002906A18B345F24C33C2F20003996C3C
:10BBD000B1B901688C4210DD09E023F073FD45F234
:10BBE0004C30C2F200004FF0000383620FE0426865
:10BBF00094420CDC9542F0DA09E08D42EDDAF6E78A
:10BC000045F24C32C2F20002136C0A2BE1D145F22C
:10BC10004C31C2F20001C86A18B345F24C32C2F28C
:10BC20000002936CB3B903689C4210DD09E023F075
:10BC300049FD45F24C30C2F200004FF00002C262F2
:10BC40000FE041688C420CDC8D42F0DA09E09D4245
:10BC5000EDDAF6E745F24C31C2F200010A6C0B2A2C
:10BC6000E1D145F24C33C2F20003186B18B345F230
:10BC70004C31C2F200018A6CB2B90268944210DD04
:10BC800009E023F01FFD45F24C30C2F200004FF0F6
:10BC9000000101630FE043689C420CDC9D42F0DA36
:10BCA00009E09542EDDAF6E745F24C33C2F20003C3
:10BCB000196C0C29E1D145F24C32C2F20002506BF2
:10BCC00018B345F24C33C2F20003996CB1B9016864
:10BCD0008C4210DD09E023F0F5FC45F24C30C2F255
:10BCE00000004FF0000343630FE0426894420CDC15
:10BCF0009542F0DA09E08D42EDDAF6E745F24C3292
:10BD0000C2F20002136C0D2BE1D145F24C31C2F2AC
:10BD10000001886B18B345F24C32C2F20002936CFA
:10BD2000B3B903689C4210DD09E023F0CBFC45F277
:10BD30004C30C2F200004FF0000282630FE0416815
:10BD40008C420CDC8D42F0DA09E09D42EDDAF6E738
:10BD500045F24C31C2F200010A6C0E2AE1D145F2E3
:10BD60004C33C2F20003D86BF8B145F24C31C2F249
:10BD700000018A6C32B145F24C33C2F20003196CF7
:10BD80000F2912D00268A24201DBAA4204DD4368F7
:10BD90009C420ADC9D4208DB23F094FC45F24C30C7
:10BDA000C2F200004FF00001C16338BD70B5064615
:10BDB00000283BD046F60453C2F2010393F8BA00C0
:10BDC000022806D145F24C31C2F20001CA6C4AB9D0
:10BDD00020E049F66870C0F6050007F0AFF84FF0B4
:10BDE000FF3070BD19484FF0010350F8041F31B106
:10BDF00003F101042346024652F8045FCDB9402BFB
:10BE00000AD149F6B470C0F6050007F097F86FF054
:10BE1000010070BD4FF0000345F24C30C2F200004B
:10BE200000EB8302D6644FF0000070BD4FF0FF308E
:10BE300070BD04F10103516800F108000029DED053
:10BE400004F10203402BD0D1DBE700BF9853002060
:10BE500038B50546002832D046F60453C2F2010335
:10BE600093F8BA0002282DD0D5F81012B1F57A7FD8
:10BE700028DB4AF20000C0F6050007F05FF84FF03B
:10BE8000FF3038BD52F8040FA8420CD101E04FF04A
:10BE9000000345F24C32C2F2000202EB83014FF084
:10BEA0000000C86438BD03F101042346114651F86F
:10BEB000040FA84211D1ECE76FF0010038BD4FF03C
:10BEC000FF3038BD45F24C32C2F20002D36CAB42B7
:10BED000DDD0084A4FF00103D4E704F101034968BB
:10BEE00002F10802A942D4D004F10203402BC9D1C7
:10BEF000E2E700BF985300202DE9F04105460F46C8
:10BF000045F24C36C2F2000606F14C0406F5A67660
:10BF10004FF0000854F8040B40B10368AB4205DB56
:10BF2000BB4203DC23F0CEFB44F8048C54F8040B32
:10BF300000B908E00168A94205DBB94203DC23F03F
:10BF4000C1FB44F8048CB442E4D1BDE8F08100BFE9
:10BF500070B50646002867D046F60453C2F20103C6
:10BF600093F8BA00022804D0D6F81012B1F57A7FFF
:10BF700003DA32484FF0000308E04AF25000C0F6FE
:10BF8000050006F0DBFF4FF0FF3070BD00F1040448
:10BF900042680AB1964208D003F101052B4604F12C
:10BFA00004006468002C42D143E0402B09D14AF2DE
:10BFB0009800C0F60500314606F0C0FF4FF0FF3094
:10BFC00070BD4FF00004C6F8084246F60451C2F2B4
:10BFD000010191F8BB20344604F8042F2046B6F83E
:10BFE000041207F015FED6F8041201F10201C6F89A
:10BFF000041245F67C50C2F20000037853B14AF2B5
:10C00000F800C0F6050006F099FF2046B6F80412C5
:10C0100007F00AFE4FF48840C4F200002146D6F82B
:10C02000042213F05BF970BD4FF0FF3070BDA642E3
:10C03000BBD005F10103402BA8D1B8E794530020F1
:10C0400000B5C1B046F60453C2F2010393F8BF0035
:10C05000012840F0928045F29843C2F20003196C27
:10C0600053F82120D2B94FF49040C4F20000694641
:10C070004FF480724FF0010314F0E2FA014645F6E6
:10C080007C53C2F200031878002800F0D6804AF2F0
:10C090003410C0F6050006F051FFCEE04FF490409A
:10C0A000C4F2000014F078FA45F29843C2F200039B
:10C0B000196C53F82120D2F81032C3F580729042E7
:10C0C00006DA4FF49040C4F2000014F065FA02461C
:10C0D000002A0EDC45F67C51C2F200010A78002AE3
:10C0E00000F0AB8049F65440C0F6050006F026FF8C
:10C0F000A3E045F29840C2F20000016C50F82130F4
:10C10000D3F8100200F584714FF49040C4F200009F
:10C1100059184FF0010314F093FA00280BDD45F293
:10C120009843C2F200031A6C53F82210D1F810326F
:10C130001818C1F8100245F29841C2F200010A6CC9
:10C1400051F82230D3F81002FF280CDD4FF05700D1
:10C1500001F084FA4FF057004FF001014FF0000258
:10C16000134608F0B9FE4FF057004FF01E014FF094
:10C170000002134601F02EFA5FE002285DD14FF471
:10C180009040C4F2000014F007FA45F29841C2F260
:10C1900000014A6CC2F58072904206DA4FF490407A
:10C1A000C4F2000014F0F8F90246002A0DDC45F64E
:10C1B0007C52C2F20002107800283ED04AF2701081
:10C1C000C0F6050006F0BAFE37E045F29843C2F229
:10C1D0000003596C4FF49040C4F2000049F620432C
:10C1E000C2F20103C9184FF0010314F029FA002824
:10C1F00006DD45F29841C2F200014A6C101848640D
:10C2000045F29843C2F20003596CFF290CDD4FF050
:10C21000570001F023FA4FF057004FF001014FF0A3
:10C220000002134608F058FE4FF057004FF005018A
:10C230004FF00002134601F0CDF941B000BD00BF40
:10C2400038B545F29843C2F20003986C002840F0DC
:10C25000C38145F29841C2F200010A6C4FF00F030E
:10C26000C8F200031340002B05DA03F1FF3464F039
:10C270000F0303F101031C4645F29840C2F200008F
:10C2800050F82330002B40F06E8102F101014FF095
:10C290000F03C8F200030B40002B05DA03F1FF3453
:10C2A00064F00F0303F101031C4645F29840C2F20B
:10C2B000000050F82330002B40F0558102F10201BC
:10C2C0004FF00F03C8F200030B40002B05DA03F117
:10C2D000FF3464F00F0303F101031C4645F298405C
:10C2E000C2F2000050F82330002B40F03C8102F1F4
:10C2F00003014FF00F03C8F200030B40002B05DAD7
:10C3000003F1FF3464F00F0303F101031C4645F20F
:10C310009840C2F2000050F82330002B40F02381F7
:10C3200002F104014FF00F03C8F200030B40002B91
:10C3300005DA03F1FF3464F00F0303F101031C4637
:10C3400045F29840C2F2000050F82330002B40F034
:10C350000A8102F105014FF00F03C8F200030B4000
:10C36000002B05DA03F1FF3464F00F0303F101033E
:10C370001C4645F29840C2F2000050F82330002BD2
:10C3800040F0F18002F106014FF00F03C8F2000304
:10C390000B40002B05DA03F1FF3464F00F0303F1C7
:10C3A00001031C4645F29840C2F2000050F82330C9
:10C3B000002B40F0D88002F107014FF00F03C8F2C4
:10C3C00000030B40002B05DA03F1FF3464F00F0388
:10C3D00003F101031C4645F29840C2F2000050F8F8
:10C3E0002330002B40F0BF8002F108014FF00F0313
:10C3F000C8F200030B40002B05DA03F1FF3464F0B0
:10C400000F0303F101031C4645F29840C2F20000FD
:10C4100050F82330002B40F0A68002F109014FF0C4
:10C420000F03C8F200030B40002B05DA03F1FF34C1
:10C4300064F00F0303F101031C4645F29840C2F279
:10C44000000050F82330002B40F08D8002F10A01EB
:10C450004FF00F03C8F200030B40002B05DA03F185
:10C46000FF3464F00F0303F101031C4645F29840CA
:10C47000C2F2000050F82330002B74D102F10B01FE
:10C480004FF00F03C8F200030B40002B05DA03F155
:10C49000FF3464F00F0303F101031C4645F298409A
:10C4A000C2F2000050F82330002B5CD102F10C01E5
:10C4B0004FF00F03C8F200030B40002B05DA03F125
:10C4C000FF3464F00F0303F101031C4645F298406A
:10C4D000C2F2000050F82330002B44D102F10D01CC
:10C4E0004FF00F03C8F200030B40002B05DA03F1F5
:10C4F000FF3464F00F0303F101031C4645F298403A
:10C50000C2F2000050F823306BBB02F10E014FF075
:10C510000F03C8F200030B40002B05DA03F1FF34D0
:10C5200064F00F0303F101031C4645F29840C2F288
:10C53000000050F82330B3B902F10F024FF00F01A1
:10C54000C8F200011140002905DA01F1FF3262F062
:10C550000F0101F101010C4645F29843C2F20003BC
:10C5600053F82130C3B34FF49040C4F2000003F1FC
:10C570000801D3F80C2212F0B1FE45F29840C2F245
:10C58000000004644FF00102826450F824104FF060
:10C590005700D1F808124FF00002134601F01AF8C4
:10C5A00045F67C53C2F200031878A8B145F29845CD
:10C5B000C2F2000555F824204AF2AC10C0F605007E
:10C5C000D2F80C1206F0BAFC55F8241001F108005C
:10C5D000B1F80C1207F028FB38BD00BF2DE9F0437D
:10C5E00085B0572840F0BD8146F60453C2F20103DE
:10C5F00093F8BF00022840F0088145F67C52C2F251
:10C600000002107890B145F29844C2F200044AF258
:10C61000E010C0F60500616C06F090FC49F6204081
:10C62000C2F20100B4F8441007F0FEFA45F2984156
:10C63000C2F20001496C032906DC4AF21020C0F660
:10C64000050006F07BFCD8E049F62044C2F2010464
:10C65000A1F10201204689B207F08AFA024645F2AA
:10C660009843C2F200035B6CE41814F8010C14F850
:10C67000021C41EA00218A4206D04AF23C20C0F660
:10C68000050006F05BFCB8E049F62042C2F2010268
:10C69000107846F60451C2F2010191F8C020904290
:10C6A00040F0AB8049F62046C2F20106757896F854
:10C6B00002E0F77847EA0E2E96F804C0747944EA4F
:10C6C0000C2CB24E4FF000040EEB0C0806F10407E0
:10C6D0007068D0F80C12A94250D1102D29D8D0F88A
:10C6E000102296454ADBD0F81412884546DA00F548
:10C6F000827049F62041C2F201011A4623F034F853
:10C7000045F29840C2F2000000EB8401CA6C106848
:10C710004FF000010B4608F0DFFB45F67C52C2F2F9
:10C7200000021378002B68D09948214606F006FCD9
:10C7300063E000F5827049F62041C2F201011A4619
:10C7400023F012F845F29843C2F2000303EB84028F
:10C75000D26C10684FF000010B4608F0BDFB45F6A7
:10C760007C51C2F200010878002846D04AF27820B5
:10C77000C0F60500214606F0E1FB3EE004F10109A8
:10C780004C4607F1040678682946D0F80C72AF428F
:10C7900040F0F680E8E045F67C53C2F200031878DA
:10C7A00068B14AF2AC20C0F605007246634606F056
:10C7B000C5FB4AF67470C0F6050006F0BFFB46F6EE
:10C7C0000451C2F2010191F8C0208DF8002065F0FB
:10C7D0007F058DF801504FF002038DF80230684656
:10C7E0004FF0030107F014FA4FF49040C4F2000038
:10C7F00069464FF0050212F071FD45F29840C2F211
:10C8000000004FF000014164ABE0012840F0A98036
:10C8100045F67C51C2F200010A78BAB145F298445B
:10C82000C2F20004236C54F823104AF20030C0F620
:10C830000500D1F8101206F081FB206C54F820207E
:10C8400002F58470B2F8101207F0EEF945F2984341
:10C85000C2F20003196C53F82120D2F8103233B918
:10C8600050684FF000010B4608F036FB62E0032BE6
:10C870000CDC50684FF000010B4608F02DFB4AF22B
:10C880003030C0F6050006F059FB53E092F809413C
:10C89000102C17D892F909514FF0010000FA05F158
:10C8A00011F4C03F11D111F0600F03D111F01E0F30
:10C8B00003D107E04FF0070409E092F80A4104F1C0
:10C8C000030404E0A3F1020401E04FF0060402F5C2
:10C8D0008470A1B207F04CF9024645F29845C2F2C5
:10C8E00000052B6C55F82350A3B2EC1894F80901FD
:10C8F00094F8081141EA00218A4213D04AF25830D4
:10C90000C0F6050006F01AFB45F29843C2F2000398
:10C910001A6C53F8222050684FF000010B4608F0C3
:10C92000DBFA12E028684FF000012A460B4608F0B7
:10C93000D3FA0AE045F29840C2F20000016C50F8C8
:10C9400021304FF00002C3F8102245F29840C2F2A5
:10C950000000016C4FF0000340F821308364FFF7C2
:10C960006FFC05B0BDE8F083102D3FF6E2AED0F8C5
:10C970001022964504DBD0F814229045FFF6B7AE9E
:10C9800009F10104402C7FF4A1AE04E7E05400203B
:10C9900078A2050870B50146002800F0BF8146F670
:10C9A0000453C2F2010393F8BF0001281AD145F2E3
:10C9B0009842C2F20002136C4FF00F02C8F200025C
:10C9C0001A40002A05DA02F1FF3464F00F0202F186
:10C9D0000102144645F29840C2F2000050F82220AD
:10C9E0004AB97FE14AF2A830C0F6050006F0A6FA7F
:10C9F0004FF0FF3070BD03F101044FF00F02C8F299
:10CA000000022240002A05DA02F1FF3060F00F0236
:10CA100002F10102144645F29840C2F2000050F8BB
:10CA20002220002A00F05E8103F102044FF00F0281
:10CA3000C8F200022240002A05DA02F1FF3060F05D
:10CA40000F0202F10102144645F29840C2F20000C2
:10CA500050F82220002A00F0458103F103044FF032
:10CA60000F02C8F200022240002A05DA02F1FF306C
:10CA700060F00F0202F10102144645F29840C2F242
:10CA8000000050F82220002A00F02C8103F1040459
:10CA90004FF00F02C8F200022240002A05DA02F12C
:10CAA000FF3060F00F0202F10102144645F2984097
:10CAB000C2F2000050F82220002A00F0138103F196
:10CAC00005044FF00F02C8F200022240002A05DAE6
:10CAD00002F1FF3060F00F0202F10102144645F24C
:10CAE0009840C2F2000050F82220002A00F0FA809C
:10CAF00003F106044FF00F02C8F200022240002AA0
:10CB000005DA02F1FF3060F00F0202F10102144673
:10CB100045F29840C2F2000050F82220002A00F0AE
:10CB2000E18003F107044FF00F02C8F20002224037
:10CB3000002A05DA02F1FF3060F00F0202F1010273
:10CB4000144645F29840C2F2000050F82220002A14
:10CB500000F0C88003F108044FF00F02C8F2000291
:10CB60002240002A05DA02F1FF3060F00F0202F1E4
:10CB70000102144645F29840C2F2000050F822200B
:10CB8000002A00F0AF8003F109044FF00F02C8F251
:10CB900000022240002A05DA02F1FF3060F00F02A5
:10CBA00002F10102144645F29840C2F2000050F82A
:10CBB0002220002A00F0968003F10A044FF00F02B1
:10CBC000C8F200022240002A05DA02F1FF3060F0CC
:10CBD0000F0202F10102144645F29840C2F2000031
:10CBE00050F82220002A7DD003F10B044FF00F02F1
:10CBF000C8F200022240002A05DA02F1FF3060F09C
:10CC00000F0202F10102144645F29840C2F2000000
:10CC100050F82220002A65D003F10C044FF00F02D7
:10CC2000C8F200022240002A05DA02F1FF3060F06B
:10CC30000F0202F10102144645F29840C2F20000D0
:10CC400050F82220002A4DD003F10D044FF00F02BE
:10CC5000C8F200022240002A05DA02F1FF3060F03B
:10CC60000F0202F10102144645F29840C2F20000A0
:10CC700050F82220B2B303F10E044FF00F02C8F2B5
:10CC800000022240002A05DA02F1FF3060F00F02B4
:10CC900002F10102144645F29840C2F2000050F839
:10CCA0002220FAB103F10F034FF00F00C8F2000089
:10CCB0001840002805DA00F1FF3363F00F0000F19F
:10CCC0000100044645F29842C2F2000252F82030B8
:10CCD00043B14AF2F830C0F6050006F02FF96FF0C4
:10CCE000010070BD45F29846C2F2000646F82410D5
:10CCF0004FF00005C1F8105201F10800B1F80C1214
:10CD000006F086FF56F82410D1F80C0200F102005C
:10CD1000C1F80C02FFF794FA284670BD4FF0FF30BF
:10CD200070BD00BF38B504460D4645F29843C2F2C7
:10CD30000003186818B345F29841C2F200018A6CEA
:10CD4000B2B90268944210DD09E022F0BBFC45F262
:10CD50009840C2F200004FF0000101600FE043680C
:10CD60009C420CDC9D42F0DA09E09542EDDAF6E7F0
:10CD700045F29843C2F20003196C0029E1D145F253
:10CD80009842C2F20002506818B345F29843C2F2CA
:10CD90000003996CB1B901688C4210DD09E022F002
:10CDA00091FC45F29840C2F200004FF0000343604E
:10CDB0000FE0426894420CDC9542F0DA09E08D42C3
:10CDC000EDDAF6E745F29842C2F20002136C012B4D
:10CDD000E1D145F29841C2F20001886818B345F2EA
:10CDE0009842C2F20002936CB3B903689C4210DD12
:10CDF00009E022F067FC45F29840C2F200004FF0D3
:10CE0000000282600FE041688C420CDC8D42F0DA57
:10CE100009E09D42EDDAF6E745F29841C2F20001E1
:10CE20000A6C022AE1D145F29843C2F20003D868A5
:10CE300018B345F29841C2F200018A6CB2B9026897
:10CE4000944210DD09E022F03DFC45F29840C2F228
:10CE500000004FF00001C1600FE043689C420CDC11
:10CE60009D42F0DA09E09542EDDAF6E745F29843A3
:10CE7000C2F20003196C0329E1D145F29842C2F2D3
:10CE80000002106918B345F29843C2F20003996C8E
:10CE9000B1B901688C4210DD09E022F013FC45F2C3
:10CEA0009840C2F200004FF0000303610FE04268B7
:10CEB00094420CDC9542F0DA09E08D42EDDAF6E7B7
:10CEC00045F29842C2F20002136C042BE1D145F204
:10CED0009841C2F20001486918B345F29842C2F283
:10CEE0000002936CB3B903689C4210DD09E022F0A4
:10CEF000E9FB45F29840C2F200004FF000024261A7
:10CF00000FE041688C420CDC8D42F0DA09E09D4272
:10CF1000EDDAF6E745F29841C2F200010A6C052A03
:10CF2000E1D145F29843C2F20003986918B345F283
:10CF30009841C2F200018A6CB2B90268944210DDD5
:10CF400009E022F0BFFB45F29840C2F200004FF02A
:10CF5000000181610FE043689C420CDC9D42F0DAE5
:10CF600009E09542EDDAF6E745F29843C2F2000394
:10CF7000196C0629E1D145F29842C2F20002D0694B
:10CF800018B345F29843C2F20003996CB1B9016835
:10CF90008C4210DD09E022F095FB45F29840C2F288
:10CFA00000004FF00003C3610FE0426894420CDCC4
:10CFB0009542F0DA09E08D42EDDAF6E745F2984263
:10CFC000C2F20002136C072BE1D145F29841C2F284
:10CFD0000001086A18B345F29842C2F20002936C4D
:10CFE000B3B903689C4210DD09E022F06BFB45F207
:10CFF0009840C2F200004FF0000202620FE0416868
:10D000008C420CDC8D42F0DA09E09D42EDDAF6E765
:10D0100045F29841C2F200010A6C082AE1D145F2BA
:10D020009843C2F20003586A18B345F29841C2F21D
:10D0300000018A6CB2B90268944210DD09E022F066
:10D0400041FB45F29840C2F200004FF000014162FE
:10D050000FE043689C420CDC9D42F0DA09E0954207
:10D06000EDDAF6E745F29843C2F20003196C09299C
:10D07000E1D145F29842C2F20002906A18B345F23B
:10D080009843C2F20003996CB1B901688C4210DD7B
:10D0900009E022F017FB45F29840C2F200004FF081
:10D0A000000383620FE0426894420CDC9542F0DAA0
:10D0B00009E08D42EDDAF6E745F29842C2F200024D
:10D0C000136C0A2BE1D145F29841C2F20001C86A03
:10D0D00018B345F29842C2F20002936CB3B90368E8
:10D0E0009C4210DD09E022F0EDFA45F29840C2F2D0
:10D0F00000004FF00002C2620FE041688C420CDC7D
:10D100008D42F0DA09E09D42EDDAF6E745F298410A
:10D11000C2F200010A6C0B2AE1D145F29843C2F237
:10D120000003186B18B345F29841C2F200018A6CF3
:10D13000B2B90268944210DD09E022F0C3FA45F268
:10D140009840C2F200004FF0000101630FE0436815
:10D150009C420CDC9D42F0DA09E09542EDDAF6E7FC
:10D1600045F29843C2F20003196C0C29E1D145F253
:10D170009842C2F20002506B18B345F29843C2F2D3
:10D180000003996CB1B901688C4210DD09E022F00E
:10D1900099FA45F29840C2F200004FF00003436351
:10D1A0000FE0426894420CDC9542F0DA09E08D42CF
:10D1B000EDDAF6E745F29842C2F20002136C0D2B4D
:10D1C000E1D145F29841C2F20001886B18B345F2F3
:10D1D0009842C2F20002936CB3B903689C4210DD1E
:10D1E00009E022F06FFA45F29840C2F200004FF0D9
:10D1F000000282630FE041688C420CDC8D42F0DA61
:10D2000009E09D42EDDAF6E745F29841C2F20001ED
:10D210000A6C0E2AE1D145F29843C2F20003D86BA2
:10D22000F8B145F29841C2F200018A6C32B145F280
:10D230009843C2F20003196C0F2912D00268A2426F
:10D2400001DBAA4204DD43689C420ADC9D4208DB04
:10D2500022F038FA45F29840C2F200004FF0000187
:10D26000C16338BD70B5064600283BD046F604536E
:10D27000C2F2010393F8BF00022806D145F298419B
:10D28000C2F20001CA6C4AB920E04AF24C40C0F632
:10D29000050005F053FE4FF0FF3070BD19484FF008
:10D2A000010350F8041F31B103F101042346024683
:10D2B00052F8045FCDB9402B0AD14AF29840C0F62B
:10D2C000050005F03BFE6FF0010070BD4FF000035C
:10D2D00045F29840C2F2000000EB8302D6644FF0A2
:10D2E000000070BD4FF0FF3070BD04F101035168C4
:10D2F00000F108000029DED004F10203402BD0D158
:10D30000DBE700BFE454002038B50546002832D0E2
:10D3100046F60453C2F2010393F8BF0002282DD051
:10D32000D5F81012B1F57A7F28DB4AF2E440C0F656
:10D33000050005F003FE4FF0FF3038BD52F8040F32
:10D34000A8420CD101E04FF0000345F29842C2F22E
:10D35000000202EB83014FF00000C86438BD03F106
:10D3600001042346114651F8040FA84211D1ECE7FD
:10D370006FF0010038BD4FF0FF3038BD45F29842E4
:10D38000C2F20002D36CAB42DDD0084A4FF0010379
:10D39000D4E704F10103496802F10802A942D4D09C
:10D3A00004F10203402BC9D1E2E700BFE45400209E
:10D3B0002DE9F04105460F4645F29846C2F20006B7
:10D3C00006F14C0406F5A6764FF0000854F8040B5D
:10D3D00040B10368AB4205DBBB4203DC22F072F9CB
:10D3E00044F8048C54F8040B00B908E00168A94221
:10D3F00005DBB94203DC22F065F944F8048CB44241
:10D40000E4D1BDE8F08100BF70B50646002867D0C2
:10D4100046F60453C2F2010393F8BF00022804D079
:10D42000D6F81012B1F57A7F03DA32484FF00003D4
:10D4300008E04AF23450C0F6050005F07FFD4FF0D9
:10D44000FF3070BD00F1040442680AB1964208D072
:10D4500003F101052B4604F104006468002C42D15D
:10D4600043E0402B09D14AF27C50C0F6050031461A
:10D4700005F064FD4FF0FF3070BD4FF00004C6F8BA
:10D48000084246F60451C2F2010191F8C020344628
:10D4900004F8042F2046B6F8041206F0B9FBD6F8BB
:10D4A000041201F10201C6F8041245F67C50C2F2E2
:10D4B0000000037853B14AF2DC50C0F6050005F0D5
:10D4C0003DFD2046B6F8041206F0AEFB4FF4904046
:10D4D000C4F200002146D6F8042211F0FFFE70BD10
:10D4E0004FF0FF3070BDA642BBD005F10103402BC9
:10D4F000A8D1B8E7E054002008B549F62050C2F2A0
:10D5000001004FF000014FF4006222F050F908BD15
:10D510002DE9F84349F62055C2F2010505F108044A
:10D5200005F608064FF001084FF00007A14654F831
:10D53000083C7BB154F8040C00F1FF3144F8041CA2
:10D5400041B954F8080C4146AA68EB6807F088FC1A
:10D5500044F8087C05F1100504F1100454F8082C77
:10D560007AB154F8043C03F1FF3044F8040C40B99C
:10D5700054F8080C4146AA68EB6807F071FC44F8BF
:10D58000087C05F1100504F11004B442CED1BDE8C9
:10D59000F88300BF30B44FF0000349F62052C2F2C6
:10D5A00001021D469C58844202DB8C42B8BF9D504C
:10D5B00003F110039C58844205DB01E030BC704746
:10D5C0008C42B8BF9D5003F11003B3F5006FE9D151
:10D5D000F4E700BFF0B407464FF000004FF0FF360D
:10D5E00049F6205CC2F2010C4FEA001454F80C40DA
:10D5F000002C08BF0646BC4209D149F62054C2F2AD
:10D60000010404EB00146160A260E3601EE000F11D
:10D61000010528464FEA051454F80C40002C08BFB9
:10D620002E46BC4214D1E8E7B6F1FF3F0CD049F6D4
:10D630002055C2F201054FEA061428192F51416006
:10D640008260C360304601E04FF0FF30F0BC7047AD
:10D6500005F101008028C7D1E6E700BF10B449F604
:10D660002053C2F20103196881420DD049F62052BD
:10D67000C2F201024FF00103116981421ED105E09F
:10D68000116981420CD101E04FF000034FEA03120F
:10D6900049F62051C2F201014FF0000088500AE023
:10D6A00003F101010B4602F11002146984420AD110
:10D6B000ECE74FF0FF33184610BC704703F101034D
:10D6C00002F11002DCE701F1010302F11002802BEC
:10D6D000D6D1EEE74FF48053C4F20203596948F201
:10D6E000FF720A4042EAC0205861704770B5064692
:10D6F0004FF48050C4F202004FF400414FF000029A
:10D7000005F0E6FD4FF48065C4F2020528464FF4AB
:10D7100080614FF0000205F0DBFD4FEA1610FFF7C5
:10D72000D9FF4FF44064C4F2020420464FF48071E4
:10D730004FF0010205F0CCFD4FF0050005F028FD8B
:10D7400020464FF480714FF0000205F0C1FD4FF00C
:10D75000050005F01DFD06F00F00FFF7BBFF20469A
:10D760004FF480714FF0010205F0B2FD4FF005005B
:10D7700005F00EFD20464FF480714FF0000205F0D9
:10D78000A7FD28464FF480614FF0010205F0A0FD8F
:10D790004FF0050005F0FCFC70BD00BF38B5054634
:10D7A0004FF48050C4F202004FF400414FF00002E9
:10D7B00005F08EFD4FF48064C4F2020420464FF45D
:10D7C00080614FF0000205F083FD4FEA1510FFF76E
:10D7D00081FF4FF0050005F0DBFC4FF44060C4F220
:10D7E00002004FF480714FF0000205F071FD2046F9
:10D7F0004FF480614FF0010205F06AFD4FF0050023
:10D8000005F0C6FC38BD00BF70B506464FF4805029
:10D81000C4F202004FF400414FF0010205F058FD40
:10D820004FF48065C4F2020528464FF480614FF042
:10D83000000205F04DFD4FEA1610FFF74BFF4FF4C5
:10D840004064C4F2020420464FF480714FF001029C
:10D8500005F03EFD4FF0010005F09AFC20464FF424
:10D8600080714FF0000205F033FD4FF0010005F02C
:10D870008FFC06F00F00FFF72DFF20464FF480715C
:10D880004FF0010205F024FD4FF0010005F080FC8F
:10D8900020464FF480714FF0000205F019FD284634
:10D8A0004FF480614FF0010205F012FD4FF00100CE
:10D8B00005F06EFC70BD00BF10B54FF0C80005F05C
:10D8C0007FFC4FF00200FFF705FF4FF44064C4F205
:10D8D000020420464FF400614FF0010205F0F8FC0D
:10D8E00020464FF480614FF0010205F0F1FC204624
:10D8F0004FF480714FF0010205F0EAFC4FF48050C4
:10D90000C4F202004FF400414FF0000205F0E0FCC9
:10D910004FF48060C4F202004FF480614FF00002C7
:10D9200005F0D6FC4FF0C80005F04AFC20464FF445
:10D9300080714FF0000205F0CBFC4FF0050005F0C0
:10D940003FFC4FF03000FFF729FF4FF0050005F0D6
